{
  "contractName": "FlightSuretyData",
  "abi": [
    {
      "constant": true,
      "inputs": [],
      "name": "AirlineRegistrationFee",
      "outputs": [
        {
          "name": "",
          "type": "uint256"
        }
      ],
      "payable": false,
      "stateMutability": "view",
      "type": "function"
    },
    {
      "constant": true,
      "inputs": [],
      "name": "airlineCount",
      "outputs": [
        {
          "name": "",
          "type": "uint256"
        }
      ],
      "payable": false,
      "stateMutability": "view",
      "type": "function"
    },
    {
      "inputs": [],
      "payable": false,
      "stateMutability": "nonpayable",
      "type": "constructor"
    },
    {
      "payable": true,
      "stateMutability": "payable",
      "type": "fallback"
    },
    {
      "anonymous": false,
      "inputs": [
        {
          "indexed": false,
          "name": "authContract",
          "type": "address"
        }
      ],
      "name": "AuthorizedContract",
      "type": "event"
    },
    {
      "anonymous": false,
      "inputs": [
        {
          "indexed": false,
          "name": "authContract",
          "type": "address"
        }
      ],
      "name": "DeAuthorizedContract",
      "type": "event"
    },
    {
      "constant": true,
      "inputs": [],
      "name": "isOperational",
      "outputs": [
        {
          "name": "",
          "type": "bool"
        }
      ],
      "payable": false,
      "stateMutability": "view",
      "type": "function"
    },
    {
      "constant": false,
      "inputs": [
        {
          "name": "mode",
          "type": "bool"
        }
      ],
      "name": "setOperatingStatus",
      "outputs": [],
      "payable": false,
      "stateMutability": "nonpayable",
      "type": "function"
    },
    {
      "constant": false,
      "inputs": [
        {
          "name": "contractAddress",
          "type": "address"
        }
      ],
      "name": "authorizeCaller",
      "outputs": [],
      "payable": false,
      "stateMutability": "nonpayable",
      "type": "function"
    },
    {
      "constant": false,
      "inputs": [
        {
          "name": "contractAddress",
          "type": "address"
        }
      ],
      "name": "deauthorizeContract",
      "outputs": [],
      "payable": false,
      "stateMutability": "nonpayable",
      "type": "function"
    },
    {
      "constant": false,
      "inputs": [
        {
          "name": "companyName",
          "type": "string"
        },
        {
          "name": "IATA",
          "type": "string"
        },
        {
          "name": "registered",
          "type": "bool"
        },
        {
          "name": "funded",
          "type": "bool"
        },
        {
          "name": "delegator",
          "type": "address"
        }
      ],
      "name": "registerAirline",
      "outputs": [],
      "payable": false,
      "stateMutability": "nonpayable",
      "type": "function"
    },
    {
      "constant": false,
      "inputs": [
        {
          "name": "Owner",
          "type": "address"
        },
        {
          "name": "amount",
          "type": "uint256"
        }
      ],
      "name": "sendFund",
      "outputs": [],
      "payable": false,
      "stateMutability": "nonpayable",
      "type": "function"
    },
    {
      "constant": false,
      "inputs": [],
      "name": "getAirlineRegistrationFee",
      "outputs": [
        {
          "name": "",
          "type": "uint256"
        }
      ],
      "payable": false,
      "stateMutability": "nonpayable",
      "type": "function"
    },
    {
      "constant": false,
      "inputs": [
        {
          "name": "account",
          "type": "address"
        }
      ],
      "name": "getAirlineRegisterStatus",
      "outputs": [
        {
          "name": "",
          "type": "bool"
        }
      ],
      "payable": false,
      "stateMutability": "nonpayable",
      "type": "function"
    },
    {
      "constant": false,
      "inputs": [
        {
          "name": "account",
          "type": "address"
        }
      ],
      "name": "getAirlineFundingStatus",
      "outputs": [
        {
          "name": "",
          "type": "bool"
        }
      ],
      "payable": false,
      "stateMutability": "nonpayable",
      "type": "function"
    },
    {
      "constant": false,
      "inputs": [
        {
          "name": "airline",
          "type": "address"
        },
        {
          "name": "passenger",
          "type": "address"
        },
        {
          "name": "share",
          "type": "uint256"
        }
      ],
      "name": "_setInsurance",
      "outputs": [],
      "payable": false,
      "stateMutability": "nonpayable",
      "type": "function"
    },
    {
      "constant": false,
      "inputs": [
        {
          "name": "airline",
          "type": "address"
        },
        {
          "name": "passenger",
          "type": "address"
        },
        {
          "name": "amount",
          "type": "uint256"
        }
      ],
      "name": "setCreditInsurance",
      "outputs": [],
      "payable": false,
      "stateMutability": "nonpayable",
      "type": "function"
    },
    {
      "constant": false,
      "inputs": [
        {
          "name": "airline",
          "type": "address"
        }
      ],
      "name": "getInsuredIndexPassengers",
      "outputs": [
        {
          "name": "",
          "type": "address"
        },
        {
          "name": "",
          "type": "uint256"
        }
      ],
      "payable": false,
      "stateMutability": "nonpayable",
      "type": "function"
    },
    {
      "constant": false,
      "inputs": [],
      "name": "_getAirlinesInfo",
      "outputs": [
        {
          "name": "",
          "type": "string"
        },
        {
          "name": "",
          "type": "string"
        }
      ],
      "payable": false,
      "stateMutability": "nonpayable",
      "type": "function"
    },
    {
      "constant": false,
      "inputs": [
        {
          "name": "passenger",
          "type": "address"
        }
      ],
      "name": "_withdraw",
      "outputs": [
        {
          "name": "",
          "type": "uint256"
        }
      ],
      "payable": false,
      "stateMutability": "nonpayable",
      "type": "function"
    }
  ],
  "bytecode": "0x60806040526001600060146101000a81548160ff021916908315150217905550600060015534801561003057600080fd5b506100396100cf565b336000806101000a81548173ffffffffffffffffffffffffffffffffffffffff021916908373ffffffffffffffffffffffffffffffffffffffff160217905550678ac7230489e80000816000018181525050670de0b6b3a76400008160200181815250508060036000600181526020019081526020016000206000820151816000015560208201518160010155905050506100e9565b604080519081016040528060008152602001600081525090565b611b5a806100f86000396000f3006080604052600436106100e6576000357c0100000000000000000000000000000000000000000000000000000000900463ffffffff168063110466ed146100e85780631463ba12146101175780631d1e4f471461017257806324ec19f9146101df5780632c388d5d146102db5780634b5694501461031e5780636a0803611461036b5780636e861c0e146103c6578063b6a2268114610409578063b9bcd12114610434578063be2c91701461045f578063cd905dff146104e9578063da1aaa5914610518578063f19267541461056f578063f502cca3146105fa578063f552677414610667575b005b3480156100f457600080fd5b50610115600480360381019080803515159060200190929190505050610692565b005b34801561012357600080fd5b50610158600480360381019080803573ffffffffffffffffffffffffffffffffffffffff169060200190929190505050610773565b604051808215151515815260200191505060405180910390f35b34801561017e57600080fd5b506101dd600480360381019080803573ffffffffffffffffffffffffffffffffffffffff169060200190929190803573ffffffffffffffffffffffffffffffffffffffff16906020019092919080359060200190929190505050610875565b005b3480156101eb57600080fd5b506101f4610bc1565b604051808060200180602001838103835285818151815260200191508051906020019080838360005b8381101561023857808201518184015260208101905061021d565b50505050905090810190601f1680156102655780820380516001836020036101000a031916815260200191505b50838103825284818151815260200191508051906020019080838360005b8381101561029e578082015181840152602081019050610283565b50505050905090810190601f1680156102cb5780820380516001836020036101000a031916815260200191505b5094505050505060405180910390f35b3480156102e757600080fd5b5061031c600480360381019080803573ffffffffffffffffffffffffffffffffffffffff169060200190929190505050610e5a565b005b34801561032a57600080fd5b50610369600480360381019080803573ffffffffffffffffffffffffffffffffffffffff16906020019092919080359060200190929190505050610fc9565b005b34801561037757600080fd5b506103ac600480360381019080803573ffffffffffffffffffffffffffffffffffffffff16906020019092919050505061106f565b604051808215151515815260200191505060405180910390f35b3480156103d257600080fd5b50610407600480360381019080803573ffffffffffffffffffffffffffffffffffffffff169060200190929190505050611171565b005b34801561041557600080fd5b5061041e6112de565b6040518082815260200191505060405180910390f35b34801561044057600080fd5b506104496113a6565b6040518082815260200191505060405180910390f35b34801561046b57600080fd5b506104a0600480360381019080803573ffffffffffffffffffffffffffffffffffffffff1690602001909291905050506113b2565b604051808373ffffffffffffffffffffffffffffffffffffffff1673ffffffffffffffffffffffffffffffffffffffff1681526020018281526020019250505060405180910390f35b3480156104f557600080fd5b506104fe61150e565b604051808215151515815260200191505060405180910390f35b34801561052457600080fd5b50610559600480360381019080803573ffffffffffffffffffffffffffffffffffffffff169060200190929190505050611524565b6040518082815260200191505060405180910390f35b34801561057b57600080fd5b506105f8600480360381019080803590602001908201803590602001919091929391929390803590602001908201803590602001919091929391929390803515159060200190929190803515159060200190929190803573ffffffffffffffffffffffffffffffffffffffff16906020019092919050505061165f565b005b34801561060657600080fd5b50610665600480360381019080803573ffffffffffffffffffffffffffffffffffffffff169060200190929190803573ffffffffffffffffffffffffffffffffffffffff169060200190929190803590602001909291905050506117df565b005b34801561067357600080fd5b5061067c6119ec565b6040518082815260200191505060405180910390f35b6000809054906101000a900473ffffffffffffffffffffffffffffffffffffffff1673ffffffffffffffffffffffffffffffffffffffff163373ffffffffffffffffffffffffffffffffffffffff16141515610756576040517f08c379a000000000000000000000000000000000000000000000000000000000815260040180806020018281038252601d8152602001807f43616c6c6572206973206e6f7420636f6e7472616374206f776e65722e00000081525060200191505060405180910390fd5b80600060146101000a81548160ff02191690831515021790555050565b60008060149054906101000a900460ff16151561081e576040517f08c379a00000000000000000000000000000000000000000000000000000000081526004018080602001828103825260258152602001807f436f6e74726163742069732063757272656e746c79206e6f74206f706572617481526020017f696f6e616c00000000000000000000000000000000000000000000000000000081525060400191505060405180910390fd5b600260008373ffffffffffffffffffffffffffffffffffffffff1673ffffffffffffffffffffffffffffffffffffffff16815260200190815260200160002060020160019054906101000a900460ff169050919050565b60008060149054906101000a900460ff161515610920576040517f08c379a00000000000000000000000000000000000000000000000000000000081526004018080602001828103825260258152602001807f436f6e74726163742069732063757272656e746c79206e6f74206f706572617481526020017f696f6e616c00000000000000000000000000000000000000000000000000000081525060400191505060405180910390fd5b83838073ffffffffffffffffffffffffffffffffffffffff16600460008473ffffffffffffffffffffffffffffffffffffffff1673ffffffffffffffffffffffffffffffffffffffff16815260200190815260200160002060010160009054906101000a900473ffffffffffffffffffffffffffffffffffffffff1673ffffffffffffffffffffffffffffffffffffffff16141515610a27576040517f08c379a00000000000000000000000000000000000000000000000000000000081526004018080602001828103825260198152602001807f50617373656e676572206973206e6f7420696e73757265642e0000000000000081525060200191505060405180910390fd5b858480610a936002610a856003600460008873ffffffffffffffffffffffffffffffffffffffff1673ffffffffffffffffffffffffffffffffffffffff168152602001908152602001600020600001546119f290919063ffffffff16565b611a2a90919063ffffffff16565b141515610b08576040517f08c379a00000000000000000000000000000000000000000000000000000000081526004018080602001828103825260168152602001807f57726f6e6720637265646974656420616d6f756e742e0000000000000000000081525060200191505060405180910390fd5b610b716002610b636003600460008d73ffffffffffffffffffffffffffffffffffffffff1673ffffffffffffffffffffffffffffffffffffffff168152602001908152602001600020600001546119f290919063ffffffff16565b611a2a90919063ffffffff16565b945084600760008973ffffffffffffffffffffffffffffffffffffffff1673ffffffffffffffffffffffffffffffffffffffff168152602001908152602001600020819055505050505050505050565b606080600060149054906101000a900460ff161515610c6e576040517f08c379a00000000000000000000000000000000000000000000000000000000081526004018080602001828103825260258152602001807f436f6e74726163742069732063757272656e746c79206e6f74206f706572617481526020017f696f6e616c00000000000000000000000000000000000000000000000000000081525060400191505060405180910390fd5b60026000730c0b6847afd923c7c39ae185cef946318b82083a73ffffffffffffffffffffffffffffffffffffffff1673ffffffffffffffffffffffffffffffffffffffff16815260200190815260200160002060000160026000730c0b6847afd923c7c39ae185cef946318b82083a73ffffffffffffffffffffffffffffffffffffffff1673ffffffffffffffffffffffffffffffffffffffff168152602001908152602001600020600101818054600181600116156101000203166002900480601f016020809104026020016040519081016040528092919081815260200182805460018160011615610100020316600290048015610daf5780601f10610d8457610100808354040283529160200191610daf565b820191906000526020600020905b815481529060010190602001808311610d9257829003601f168201915b50505050509150808054600181600116156101000203166002900480601f016020809104026020016040519081016040528092919081815260200182805460018160011615610100020316600290048015610e4b5780601f10610e2057610100808354040283529160200191610e4b565b820191906000526020600020905b815481529060010190602001808311610e2e57829003601f168201915b50505050509050915091509091565b6000809054906101000a900473ffffffffffffffffffffffffffffffffffffffff1673ffffffffffffffffffffffffffffffffffffffff163373ffffffffffffffffffffffffffffffffffffffff16141515610f1e576040517f08c379a000000000000000000000000000000000000000000000000000000000815260040180806020018281038252601d8152602001807f43616c6c6572206973206e6f7420636f6e7472616374206f776e65722e00000081525060200191505060405180910390fd5b6001600860008373ffffffffffffffffffffffffffffffffffffffff1673ffffffffffffffffffffffffffffffffffffffff168152602001908152602001600020819055507f2c74592fddad593c2c4403101ce9b30930711ab87571268ddd1e1989ee1d791781604051808273ffffffffffffffffffffffffffffffffffffffff1673ffffffffffffffffffffffffffffffffffffffff16815260200191505060405180910390a150565b8173ffffffffffffffffffffffffffffffffffffffff166108fc829081150290604051600060405180830381858888f1935050505015801561100f573d6000803e3d6000fd5b506001600260008473ffffffffffffffffffffffffffffffffffffffff1673ffffffffffffffffffffffffffffffffffffffff16815260200190815260200160002060020160016101000a81548160ff0219169083151502179055505050565b60008060149054906101000a900460ff16151561111a576040517f08c379a00000000000000000000000000000000000000000000000000000000081526004018080602001828103825260258152602001807f436f6e74726163742069732063757272656e746c79206e6f74206f706572617481526020017f696f6e616c00000000000000000000000000000000000000000000000000000081525060400191505060405180910390fd5b600260008373ffffffffffffffffffffffffffffffffffffffff1673ffffffffffffffffffffffffffffffffffffffff16815260200190815260200160002060020160009054906101000a900460ff169050919050565b6000809054906101000a900473ffffffffffffffffffffffffffffffffffffffff1673ffffffffffffffffffffffffffffffffffffffff163373ffffffffffffffffffffffffffffffffffffffff16141515611235576040517f08c379a000000000000000000000000000000000000000000000000000000000815260040180806020018281038252601d8152602001807f43616c6c6572206973206e6f7420636f6e7472616374206f776e65722e00000081525060200191505060405180910390fd5b600860008273ffffffffffffffffffffffffffffffffffffffff1673ffffffffffffffffffffffffffffffffffffffff168152602001908152602001600020600090557fd5cf915bcf19ee4a2edf05f0add6e4520e02eda58f4b4a99387be2a7ae79cefb81604051808273ffffffffffffffffffffffffffffffffffffffff1673ffffffffffffffffffffffffffffffffffffffff16815260200191505060405180910390a150565b60008060149054906101000a900460ff161515611389576040517f08c379a00000000000000000000000000000000000000000000000000000000081526004018080602001828103825260258152602001807f436f6e74726163742069732063757272656e746c79206e6f74206f706572617481526020017f696f6e616c00000000000000000000000000000000000000000000000000000081525060400191505060405180910390fd5b600360006001815260200190815260200160002060000154905090565b678ac7230489e8000081565b600080600060149054906101000a900460ff16151561145f576040517f08c379a00000000000000000000000000000000000000000000000000000000081526004018080602001828103825260258152602001807f436f6e74726163742069732063757272656e746c79206e6f74206f706572617481526020017f696f6e616c00000000000000000000000000000000000000000000000000000081525060400191505060405180910390fd5b600460008473ffffffffffffffffffffffffffffffffffffffff1673ffffffffffffffffffffffffffffffffffffffff16815260200190815260200160002060010160009054906101000a900473ffffffffffffffffffffffffffffffffffffffff16600460008573ffffffffffffffffffffffffffffffffffffffff1673ffffffffffffffffffffffffffffffffffffffff1681526020019081526020016000206000015491509150915091565b60008060149054906101000a900460ff16905090565b600080600060149054906101000a900460ff1615156115d1576040517f08c379a00000000000000000000000000000000000000000000000000000000081526004018080602001828103825260258152602001807f436f6e74726163742069732063757272656e746c79206e6f74206f706572617481526020017f696f6e616c00000000000000000000000000000000000000000000000000000081525060400191505060405180910390fd5b600760008473ffffffffffffffffffffffffffffffffffffffff1673ffffffffffffffffffffffffffffffffffffffff168152602001908152602001600020549050600760008473ffffffffffffffffffffffffffffffffffffffff1673ffffffffffffffffffffffffffffffffffffffff1681526020019081526020016000206000905580915050919050565b611667611a5c565b87878080601f016020809104026020016040519081016040528093929190818152602001838380828437820191505050505050816000018190525085858080601f0160208091040260200160405190810160405280939291908181526020018383808284378201915050505050508160200181905250838160400190151590811515815250508281606001901515908115158152505080600260008473ffffffffffffffffffffffffffffffffffffffff1673ffffffffffffffffffffffffffffffffffffffff1681526020019081526020016000206000820151816000019080519060200190611759929190611a89565b506020820151816001019080519060200190611776929190611a89565b5060408201518160020160006101000a81548160ff02191690831515021790555060608201518160020160016101000a81548160ff0219169083151502179055509050506117cf60018054611a4090919063ffffffff16565b6001819055505050505050505050565b60008060149054906101000a900460ff16151561188a576040517f08c379a00000000000000000000000000000000000000000000000000000000081526004018080602001828103825260258152602001807f436f6e74726163742069732063757272656e746c79206e6f74206f706572617481526020017f696f6e616c00000000000000000000000000000000000000000000000000000081525060400191505060405180910390fd5b60408051908101604052808381526020018473ffffffffffffffffffffffffffffffffffffffff16815250600460008673ffffffffffffffffffffffffffffffffffffffff1673ffffffffffffffffffffffffffffffffffffffff1681526020019081526020016000206000820151816000015560208201518160010160006101000a81548173ffffffffffffffffffffffffffffffffffffffff021916908373ffffffffffffffffffffffffffffffffffffffff160217905550905050600560008573ffffffffffffffffffffffffffffffffffffffff1673ffffffffffffffffffffffffffffffffffffffff1681526020019081526020016000206000015490506119a08282611a4090919063ffffffff16565b600560008673ffffffffffffffffffffffffffffffffffffffff1673ffffffffffffffffffffffffffffffffffffffff1681526020019081526020016000206000018190555050505050565b60015481565b600080831415611a055760009050611a24565b8183029050818382811515611a1657fe5b04141515611a2057fe5b8090505b92915050565b60008183811515611a3757fe5b04905092915050565b60008183019050828110151515611a5357fe5b80905092915050565b60806040519081016040528060608152602001606081526020016000151581526020016000151581525090565b828054600181600116156101000203166002900490600052602060002090601f016020900481019282601f10611aca57805160ff1916838001178555611af8565b82800160010185558215611af8579182015b82811115611af7578251825591602001919060010190611adc565b5b509050611b059190611b09565b5090565b611b2b91905b80821115611b27576000816000905550600101611b0f565b5090565b905600a165627a7a7230582093966bad32820a4c010f2f0ae9671e1cb33221dfcbc955b769716dd0e1db42960029",
  "source": "pragma solidity ^0.4.25;\n\nimport \"../node_modules/openzeppelin-solidity/contracts/math/SafeMath.sol\";\n\ncontract FlightSuretyData {\n    using SafeMath for uint256;\n\n    /********************************************************************************************/\n    /*                                       DATA VARIABLES                                     */\n    /********************************************************************************************/\n\n    address private contractOwner;                                      // Account used to deploy contract\n    bool private operational = true;                                    // Blocks all state changes throughout the contract if false\n\n    \n    \n    /*===================================  Airlines Variables   =================================*/ \n    uint256 public airlineCount = 0;\n    uint256 public constant AirlineRegistrationFee = 10 ether;\n    \n    \n     struct airliner {\n      string companyName;\n      string IATA; //airline designators, sometimes called IATA reservation codes, are two-character codes assigned by the International Air Transport Association  \n      bool registered;\n      bool funded;\n      mapping(address => bool) delegator; //Participants of the elections process\n      }\n      mapping(address => airliner) private airlinerAddress;\n    \n    \n    \n\n    \n    /*=================================== End Airlines Variables    =================================*/ \n    \n    /*\n    struct passenger {\n      bool exist;\n      uint256 status;\n      bool add;\n      string IATA; //airline designators, sometimes called IATA reservation codes, are two-character codes assigned by the International Air Transport Association  \n      uint256 departure;\n      uint256 price;\n      mapping(address => bool) flightInsured;\n    }*/\n    \n    struct insurancesContract {\n      uint256 airlineRegistrationFee;\n      uint256 passengerFee;\n      \n    }\n    mapping(uint => insurancesContract) termsInsurance;\n    \n    struct InsuranceIndex {\n      uint256 passengerShare;\n      address passenger;\n    }\n    mapping(address => InsuranceIndex) insuranceIndex;\n    \n    struct InsuranceTreasury{\n      uint256 amount;    \t\n    }\n    mapping(address => InsuranceTreasury) insuranceTreasury;\n    \n    mapping(address => uint256) private credit;\n    \n    //mapping(bytes32 => clientFlights) private flights;\n    mapping(address => uint256) passengerAccount;\n    mapping(address => uint256) private authorizedCallers;\n    \n    /********************************************************************************************/\n    /*                                       EVENT DEFINITIONS                                  */\n    /********************************************************************************************/\n    event AuthorizedContract(address authContract);\n    event DeAuthorizedContract(address authContract);\n    /**\n    * @dev Constructor\n    *      The deploying account becomes contractOwner\n    */\n    constructor\n                                (\n                                ) \n                                public \n    {\n        contractOwner = msg.sender;\n        \n        \n        insurancesContract memory Insurance;\n        Insurance.airlineRegistrationFee = 10 ether;\n        Insurance.passengerFee = 1 ether;\n        termsInsurance[1] = Insurance;\n    }\n\n    /********************************************************************************************/\n    /*                                       FUNCTION MODIFIERS                                 */\n    /********************************************************************************************/\n\n    // Modifiers help avoid duplication of code. They are typically used to validate something\n    // before a function is allowed to be executed.\n\n    /**\n    * @dev Modifier that requires the \"operational\" boolean variable to be \"true\"\n    *      This is used on all state changing functions to pause the contract in \n    *      the event there is an issue that needs to be fixed\n    */\n    modifier requireIsOperational() \n    {\n         \n        require(operational, \"Contract is currently not operational\");  \n        _;  // All modifiers require an \"_\" which indicates where the function body will be added\n    }\n\n    /**\n    * @dev Modifier that requires the \"ContractOwner\" account to be the function caller\n    */\n    modifier requireContractOwner()\n    {\n        require(msg.sender == contractOwner, \"Caller is not contract owner.\");\n        _;\n    }\n    /**\n    * @dev Modifier that requires the \"passenger\" account to be insure\n    */\n     modifier requireIsInsure(address airline, address passenger)\n    {\n        require(insuranceIndex[airline].passenger == passenger, \"Passenger is not insured.\");\n        _;\n    }\n    /**\n    * @dev Modifier that requires the \"amount\" credited to be right\n    */\n     modifier requireIsRightCredited(address airline,uint256 amount)\n    {\n        require(insuranceIndex[airline].passengerShare.mul(3).div(2) == amount, \"Wrong credited amount.\");\n        _;\n    }\n    /**\n    * @dev Modifier that requires the \"passenger\" account and the \"airline\" account to be valide\n    */\n     modifier requireIsAccountValide(address passenger,address airline)\n    {\n        require((passenger != address(0)) && (airline != address(0)), \"'accounts address must be  valid.\");\n        _;\n    }\n\n\n\n    /********************************************************************************************/\n    /*                                       UTILITY FUNCTIONS                                  */\n    /********************************************************************************************/\n\n    /**\n    * @dev Get operating status of contract\n    *\n    * @return A bool that is the current operating status\n    */      \n    function isOperational() \n                            public \n                            view \n                            returns(bool) \n    {\n        return operational;\n    }\n\n\n    /**\n    * @dev Sets contract operations on/off\n    *\n    * When operational mode is disabled, all write transactions except for this one will fail\n    */    \n    function setOperatingStatus\n                            (\n                                bool mode\n                            ) \n                            external\n                            requireContractOwner \n    {\n        operational = mode;\n    }\n     function authorizeCaller\n                            (\n                                address contractAddress\n                            )\n                            external\n                            requireContractOwner\n    {\n        authorizedCallers[contractAddress] = 1;\n        emit AuthorizedContract(contractAddress);\n    }\n    function deauthorizeContract\n                            (\n                                address contractAddress\n                            )\n                            external\n                            requireContractOwner\n    {\n        delete authorizedCallers[contractAddress];\n        emit DeAuthorizedContract(contractAddress);\n    }\n\n\n    /********************************************************************************************/\n    /*                                     SMART CONTRACT FUNCTIONS                             */\n    /********************************************************************************************/\n    \n    \n   /*===================================  Airlines functions   =================================*/ \n\n   /**\n    * @dev Add an airline to the registration queue\n    *      Can only be called from FlightSuretyApp contract\n    *\n    */   \n     \n    function registerAirline\n                            (\n                            string companyName, string IATA, bool registered, bool funded, address delegator                            \n                            )\n                            external                            \n    {\n    \n        airliner memory addAirline;\n        addAirline.companyName = companyName;\n        addAirline.IATA = IATA;\n        addAirline.registered = registered;\n        addAirline.funded = funded; //===> false not already participate to the seed funding \n        airlinerAddress[delegator] = addAirline;\n        airlineCount = airlineCount.add(1);\n\n    }\n    \n    //******************  transactions tools ******************\n    function sendFund\n    \t\t     (\n    \t\t     address Owner, uint256 amount\n    \t\t     )\n    \t\t     external\n    {\n        Owner.transfer(amount);\n        \n        airlinerAddress[Owner].funded = true;\n        \n    }\n    \n    \n    \n   \n    \n    // ******************* setter/getter function for insurancesContract struct *******************\n    \n    function getAirlineRegistrationFee\n    \t\t\t\t\t(\n    \t\t\t\t\t)\n    \t\t\t\t\texternal \n    \t\t\t\t\trequireIsOperational \n    \t\t\t\t\treturns(uint256)\n    {\n        \n        return termsInsurance[1].airlineRegistrationFee;\n    }\n    \n    \n    // ******************* setter/getter function for airliner struct *******************\n    \n      function getAirlineRegisterStatus\n      \t\t\t\t\t(\n      \t\t\t\t\taddress account\n      \t\t\t\t\t) \n      \t\t\t\t\texternal \n      \t\t\t\t\trequireIsOperational \n      \t\t\t\t\treturns(bool)\n    {\n        return airlinerAddress[account].registered;\n    }\n\n   \n\n    \n    /*=================================== Insurance subscription =================================*/ \n    \n    function getAirlineFundingStatus\n      \t\t\t\t\t(\n      \t\t\t\t\taddress account\n      \t\t\t\t\t) \n      \t\t\t\t\texternal \n      \t\t\t\t\trequireIsOperational \n      \t\t\t\t\treturns(bool)\n    {\n        return airlinerAddress[account].funded;\n    }\n\n    function _setInsurance\n    \t\t\t(\n    \t\t\taddress airline, address passenger, uint256 share\n    \t\t\t) \n    \t\t\texternal \n    \t\t\trequireIsOperational\n    {\n        insuranceIndex[airline] = InsuranceIndex({\n            passengerShare: share,\n            passenger: passenger\n        });\n        uint256 getShare = insuranceTreasury[airline].amount;\n        insuranceTreasury[airline].amount = getShare.add(share);\n    }\n   \n    /**\n     *  @dev Credits payouts to insurees\n    */\n    function setCreditInsurance\n                                (\n                                    address airline,\n                                    address passenger,\n                                    uint256 amount\n                                )\n                                external\n                                requireIsOperational\n                                requireIsInsure(airline,passenger)\n\t\t\t\t requireIsRightCredited(airline,amount)\n\t\t\t\t //requireIsAccountValide\n\t\t\t\t\t\t\t      \n    {\n        // Amount to be credited\n        uint256 insureAmount =insuranceIndex[airline].passengerShare.mul(3).div(2);\n\n       \n        // Keep track of amount to be credited in passenger account\n        passengerAccount[passenger] = insureAmount;\n\n    }\n    function getInsuredIndexPassengers\n    \t\t\t\t\t(\n    \t\t\t\t\taddress airline\n    \t\t\t\t\t)\n    \t\t\t\t\t external \n    \t\t\t\t\t requireIsOperational  \n    \t\t\t\t\t returns(address, uint256)\n    {\n        return (insuranceIndex[airline].passenger,insuranceIndex[airline].passengerShare);\n    }\n    function _getAirlinesInfo\n    \t\t\t\t\t(\n    \t\t\t\t\t//address airline\n    \t\t\t\t\t)\n    \t\t\t\t\t external \n    \t\t\t\t\t requireIsOperational  \n    \t\t\t\t\t returns(string memory, string memory)\n    {\n        return (airlinerAddress[0x0C0b6847Afd923c7c39Ae185ceF946318b82083a].companyName,airlinerAddress[0x0C0b6847Afd923c7c39Ae185ceF946318b82083a].IATA);\n    }\n    function _withdraw\n                        (\n                            address passenger\n                        )\n                        external\n                        \n                        requireIsOperational\n                        returns(uint256)\n    {\n        uint256 withdraw = passengerAccount[passenger];\n        delete passengerAccount[passenger];\n        return withdraw;\n    }\n    \n  \n\n    \n    \n    \n\n   \n   \n\n    function getFlightKey\n                        (\n                            address airline,\n                            string memory flight,\n                            uint256 timestamp\n                        )\n                        pure\n                        internal\n                        returns(bytes32) \n    {\n        return keccak256(abi.encodePacked(airline, flight, timestamp));\n    }\n   \n\n    /**\n    * @dev Fallback function for funding smart contract.\n    *\n    */\n    function() \n                            external \n                            payable \n    {\n       // sendFund();\n    }\n\n\n}\n\n",
  "sourcePath": "/home/gaethan/Bureau/UDACITY_Blockchain/FlightSurety/contracts/FlightSuretyData.sol",
  "compiler": {
    "name": "solc",
    "version": "0.4.25+commit.59dbf8f1.Emscripten.clang"
  },
  "schemaVersion": "3.3.2",
  "updatedAt": "2021-01-25T17:17:40.513Z",
  "networkType": "ethereum",
  "devdoc": {
    "methods": {
      "isOperational()": {
        "details": "Get operating status of contract",
        "return": "A bool that is the current operating status"
      },
      "registerAirline(string,string,bool,bool,address)": {
        "details": "Add an airline to the registration queue     Can only be called from FlightSuretyApp contract    "
      },
      "setCreditInsurance(address,address,uint256)": {
        "details": "Credits payouts to insurees"
      },
      "setOperatingStatus(bool)": {
        "details": "Sets contract operations on/off    * When operational mode is disabled, all write transactions except for this one will fail"
      }
    }
  },
  "userdoc": {
    "methods": {}
  }
}