{
  "contractName": "FlightSuretyDatas",
  "abi": [
    {
      "constant": true,
      "inputs": [],
      "name": "AirlineRegistrationFee",
      "outputs": [
        {
          "name": "",
          "type": "uint256"
        }
      ],
      "payable": false,
      "stateMutability": "view",
      "type": "function"
    },
    {
      "constant": true,
      "inputs": [],
      "name": "airlineCount",
      "outputs": [
        {
          "name": "",
          "type": "uint256"
        }
      ],
      "payable": false,
      "stateMutability": "view",
      "type": "function"
    },
    {
      "inputs": [],
      "payable": false,
      "stateMutability": "nonpayable",
      "type": "constructor"
    },
    {
      "payable": true,
      "stateMutability": "payable",
      "type": "fallback"
    },
    {
      "constant": true,
      "inputs": [],
      "name": "isOperational",
      "outputs": [
        {
          "name": "",
          "type": "bool"
        }
      ],
      "payable": false,
      "stateMutability": "view",
      "type": "function"
    },
    {
      "constant": false,
      "inputs": [
        {
          "name": "mode",
          "type": "bool"
        }
      ],
      "name": "setOperatingStatus",
      "outputs": [],
      "payable": false,
      "stateMutability": "nonpayable",
      "type": "function"
    },
    {
      "constant": false,
      "inputs": [
        {
          "name": "companyName",
          "type": "string"
        },
        {
          "name": "IATA",
          "type": "string"
        },
        {
          "name": "registered",
          "type": "bool"
        },
        {
          "name": "funded",
          "type": "bool"
        },
        {
          "name": "delegator",
          "type": "address"
        }
      ],
      "name": "registerAirline",
      "outputs": [],
      "payable": false,
      "stateMutability": "nonpayable",
      "type": "function"
    },
    {
      "constant": false,
      "inputs": [
        {
          "name": "Owner",
          "type": "address"
        },
        {
          "name": "amount",
          "type": "uint256"
        }
      ],
      "name": "sendFund",
      "outputs": [],
      "payable": false,
      "stateMutability": "nonpayable",
      "type": "function"
    },
    {
      "constant": false,
      "inputs": [],
      "name": "getAirlineRegistrationFee",
      "outputs": [
        {
          "name": "",
          "type": "uint256"
        }
      ],
      "payable": false,
      "stateMutability": "nonpayable",
      "type": "function"
    },
    {
      "constant": false,
      "inputs": [
        {
          "name": "account",
          "type": "address"
        }
      ],
      "name": "getAirlineRegisterStatus",
      "outputs": [
        {
          "name": "",
          "type": "bool"
        }
      ],
      "payable": false,
      "stateMutability": "nonpayable",
      "type": "function"
    },
    {
      "constant": false,
      "inputs": [
        {
          "name": "account",
          "type": "address"
        }
      ],
      "name": "getAirlineFundingStatus",
      "outputs": [
        {
          "name": "",
          "type": "bool"
        }
      ],
      "payable": false,
      "stateMutability": "nonpayable",
      "type": "function"
    },
    {
      "constant": false,
      "inputs": [
        {
          "name": "airline",
          "type": "address"
        },
        {
          "name": "passenger",
          "type": "address"
        },
        {
          "name": "share",
          "type": "uint256"
        }
      ],
      "name": "_setInsurance",
      "outputs": [],
      "payable": false,
      "stateMutability": "nonpayable",
      "type": "function"
    },
    {
      "constant": false,
      "inputs": [
        {
          "name": "airline",
          "type": "address"
        },
        {
          "name": "passenger",
          "type": "address"
        },
        {
          "name": "amount",
          "type": "uint256"
        }
      ],
      "name": "setCreditInsurance",
      "outputs": [],
      "payable": false,
      "stateMutability": "nonpayable",
      "type": "function"
    },
    {
      "constant": false,
      "inputs": [
        {
          "name": "airline",
          "type": "address"
        }
      ],
      "name": "getInsuredIndexPassengers",
      "outputs": [
        {
          "name": "",
          "type": "address"
        },
        {
          "name": "",
          "type": "uint256"
        }
      ],
      "payable": false,
      "stateMutability": "nonpayable",
      "type": "function"
    },
    {
      "constant": false,
      "inputs": [
        {
          "name": "passenger",
          "type": "address"
        }
      ],
      "name": "_withdraw",
      "outputs": [
        {
          "name": "",
          "type": "uint256"
        }
      ],
      "payable": false,
      "stateMutability": "nonpayable",
      "type": "function"
    },
    {
      "constant": false,
      "inputs": [],
      "name": "buy",
      "outputs": [],
      "payable": true,
      "stateMutability": "payable",
      "type": "function"
    },
    {
      "constant": true,
      "inputs": [],
      "name": "pay",
      "outputs": [],
      "payable": false,
      "stateMutability": "pure",
      "type": "function"
    }
  ],
  "bytecode": "0x60806040526001600060146101000a81548160ff021916908315150217905550600060015534801561003057600080fd5b506100396100cf565b336000806101000a81548173ffffffffffffffffffffffffffffffffffffffff021916908373ffffffffffffffffffffffffffffffffffffffff160217905550678ac7230489e80000816000018181525050670de0b6b3a76400008160200181815250508060036000600181526020019081526020016000206000820151816000015560208201518160010155905050506100e9565b604080519081016040528060008152602001600081525090565b61147d806100f86000396000f3006080604052600436106100db576000357c0100000000000000000000000000000000000000000000000000000000900463ffffffff168063110466ed146100dd5780631463ba121461010c5780631b9265b8146101675780631d1e4f471461017e5780634b569450146101eb5780636a08036114610238578063a6f2ae3a14610293578063b6a226811461029d578063b9bcd121146102c8578063be2c9170146102f3578063cd905dff1461037d578063da1aaa59146103ac578063f192675414610403578063f502cca31461048e578063f5526774146104fb575b005b3480156100e957600080fd5b5061010a600480360381019080803515159060200190929190505050610526565b005b34801561011857600080fd5b5061014d600480360381019080803573ffffffffffffffffffffffffffffffffffffffff169060200190929190505050610607565b604051808215151515815260200191505060405180910390f35b34801561017357600080fd5b5061017c610709565b005b34801561018a57600080fd5b506101e9600480360381019080803573ffffffffffffffffffffffffffffffffffffffff169060200190929190803573ffffffffffffffffffffffffffffffffffffffff1690602001909291908035906020019092919050505061070b565b005b3480156101f757600080fd5b50610236600480360381019080803573ffffffffffffffffffffffffffffffffffffffff16906020019092919080359060200190929190505050610a57565b005b34801561024457600080fd5b50610279600480360381019080803573ffffffffffffffffffffffffffffffffffffffff169060200190929190505050610afd565b604051808215151515815260200191505060405180910390f35b61029b610bff565b005b3480156102a957600080fd5b506102b2610c01565b6040518082815260200191505060405180910390f35b3480156102d457600080fd5b506102dd610cc9565b6040518082815260200191505060405180910390f35b3480156102ff57600080fd5b50610334600480360381019080803573ffffffffffffffffffffffffffffffffffffffff169060200190929190505050610cd5565b604051808373ffffffffffffffffffffffffffffffffffffffff1673ffffffffffffffffffffffffffffffffffffffff1681526020018281526020019250505060405180910390f35b34801561038957600080fd5b50610392610e31565b604051808215151515815260200191505060405180910390f35b3480156103b857600080fd5b506103ed600480360381019080803573ffffffffffffffffffffffffffffffffffffffff169060200190929190505050610e47565b6040518082815260200191505060405180910390f35b34801561040f57600080fd5b5061048c600480360381019080803590602001908201803590602001919091929391929390803590602001908201803590602001919091929391929390803515159060200190929190803515159060200190929190803573ffffffffffffffffffffffffffffffffffffffff169060200190929190505050610f82565b005b34801561049a57600080fd5b506104f9600480360381019080803573ffffffffffffffffffffffffffffffffffffffff169060200190929190803573ffffffffffffffffffffffffffffffffffffffff16906020019092919080359060200190929190505050611102565b005b34801561050757600080fd5b5061051061130f565b6040518082815260200191505060405180910390f35b6000809054906101000a900473ffffffffffffffffffffffffffffffffffffffff1673ffffffffffffffffffffffffffffffffffffffff163373ffffffffffffffffffffffffffffffffffffffff161415156105ea576040517f08c379a000000000000000000000000000000000000000000000000000000000815260040180806020018281038252601d8152602001807f43616c6c6572206973206e6f7420636f6e7472616374206f776e65722e00000081525060200191505060405180910390fd5b80600060146101000a81548160ff02191690831515021790555050565b60008060149054906101000a900460ff1615156106b2576040517f08c379a00000000000000000000000000000000000000000000000000000000081526004018080602001828103825260258152602001807f436f6e74726163742069732063757272656e746c79206e6f74206f706572617481526020017f696f6e616c00000000000000000000000000000000000000000000000000000081525060400191505060405180910390fd5b600260008373ffffffffffffffffffffffffffffffffffffffff1673ffffffffffffffffffffffffffffffffffffffff16815260200190815260200160002060020160019054906101000a900460ff169050919050565b565b60008060149054906101000a900460ff1615156107b6576040517f08c379a00000000000000000000000000000000000000000000000000000000081526004018080602001828103825260258152602001807f436f6e74726163742069732063757272656e746c79206e6f74206f706572617481526020017f696f6e616c00000000000000000000000000000000000000000000000000000081525060400191505060405180910390fd5b83838073ffffffffffffffffffffffffffffffffffffffff16600460008473ffffffffffffffffffffffffffffffffffffffff1673ffffffffffffffffffffffffffffffffffffffff16815260200190815260200160002060010160009054906101000a900473ffffffffffffffffffffffffffffffffffffffff1673ffffffffffffffffffffffffffffffffffffffff161415156108bd576040517f08c379a00000000000000000000000000000000000000000000000000000000081526004018080602001828103825260198152602001807f50617373656e676572206973206e6f7420696e73757265642e0000000000000081525060200191505060405180910390fd5b858480610929600261091b6003600460008873ffffffffffffffffffffffffffffffffffffffff1673ffffffffffffffffffffffffffffffffffffffff1681526020019081526020016000206000015461131590919063ffffffff16565b61134d90919063ffffffff16565b14151561099e576040517f08c379a00000000000000000000000000000000000000000000000000000000081526004018080602001828103825260168152602001807f57726f6e6720637265646974656420616d6f756e742e0000000000000000000081525060200191505060405180910390fd5b610a0760026109f96003600460008d73ffffffffffffffffffffffffffffffffffffffff1673ffffffffffffffffffffffffffffffffffffffff1681526020019081526020016000206000015461131590919063ffffffff16565b61134d90919063ffffffff16565b945084600860008973ffffffffffffffffffffffffffffffffffffffff1673ffffffffffffffffffffffffffffffffffffffff168152602001908152602001600020819055505050505050505050565b8173ffffffffffffffffffffffffffffffffffffffff166108fc829081150290604051600060405180830381858888f19350505050158015610a9d573d6000803e3d6000fd5b506001600260008473ffffffffffffffffffffffffffffffffffffffff1673ffffffffffffffffffffffffffffffffffffffff16815260200190815260200160002060020160016101000a81548160ff0219169083151502179055505050565b60008060149054906101000a900460ff161515610ba8576040517f08c379a00000000000000000000000000000000000000000000000000000000081526004018080602001828103825260258152602001807f436f6e74726163742069732063757272656e746c79206e6f74206f706572617481526020017f696f6e616c00000000000000000000000000000000000000000000000000000081525060400191505060405180910390fd5b600260008373ffffffffffffffffffffffffffffffffffffffff1673ffffffffffffffffffffffffffffffffffffffff16815260200190815260200160002060020160009054906101000a900460ff169050919050565b565b60008060149054906101000a900460ff161515610cac576040517f08c379a00000000000000000000000000000000000000000000000000000000081526004018080602001828103825260258152602001807f436f6e74726163742069732063757272656e746c79206e6f74206f706572617481526020017f696f6e616c00000000000000000000000000000000000000000000000000000081525060400191505060405180910390fd5b600360006001815260200190815260200160002060000154905090565b678ac7230489e8000081565b600080600060149054906101000a900460ff161515610d82576040517f08c379a00000000000000000000000000000000000000000000000000000000081526004018080602001828103825260258152602001807f436f6e74726163742069732063757272656e746c79206e6f74206f706572617481526020017f696f6e616c00000000000000000000000000000000000000000000000000000081525060400191505060405180910390fd5b600460008473ffffffffffffffffffffffffffffffffffffffff1673ffffffffffffffffffffffffffffffffffffffff16815260200190815260200160002060010160009054906101000a900473ffffffffffffffffffffffffffffffffffffffff16600460008573ffffffffffffffffffffffffffffffffffffffff1673ffffffffffffffffffffffffffffffffffffffff1681526020019081526020016000206000015491509150915091565b60008060149054906101000a900460ff16905090565b600080600060149054906101000a900460ff161515610ef4576040517f08c379a00000000000000000000000000000000000000000000000000000000081526004018080602001828103825260258152602001807f436f6e74726163742069732063757272656e746c79206e6f74206f706572617481526020017f696f6e616c00000000000000000000000000000000000000000000000000000081525060400191505060405180910390fd5b600860008473ffffffffffffffffffffffffffffffffffffffff1673ffffffffffffffffffffffffffffffffffffffff168152602001908152602001600020549050600860008473ffffffffffffffffffffffffffffffffffffffff1673ffffffffffffffffffffffffffffffffffffffff1681526020019081526020016000206000905580915050919050565b610f8a61137f565b87878080601f016020809104026020016040519081016040528093929190818152602001838380828437820191505050505050816000018190525085858080601f0160208091040260200160405190810160405280939291908181526020018383808284378201915050505050508160200181905250838160400190151590811515815250508281606001901515908115158152505080600260008473ffffffffffffffffffffffffffffffffffffffff1673ffffffffffffffffffffffffffffffffffffffff168152602001908152602001600020600082015181600001908051906020019061107c9291906113ac565b5060208201518160010190805190602001906110999291906113ac565b5060408201518160020160006101000a81548160ff02191690831515021790555060608201518160020160016101000a81548160ff0219169083151502179055509050506110f26001805461136390919063ffffffff16565b6001819055505050505050505050565b60008060149054906101000a900460ff1615156111ad576040517f08c379a00000000000000000000000000000000000000000000000000000000081526004018080602001828103825260258152602001807f436f6e74726163742069732063757272656e746c79206e6f74206f706572617481526020017f696f6e616c00000000000000000000000000000000000000000000000000000081525060400191505060405180910390fd5b60408051908101604052808381526020018473ffffffffffffffffffffffffffffffffffffffff16815250600460008673ffffffffffffffffffffffffffffffffffffffff1673ffffffffffffffffffffffffffffffffffffffff1681526020019081526020016000206000820151816000015560208201518160010160006101000a81548173ffffffffffffffffffffffffffffffffffffffff021916908373ffffffffffffffffffffffffffffffffffffffff160217905550905050600560008573ffffffffffffffffffffffffffffffffffffffff1673ffffffffffffffffffffffffffffffffffffffff1681526020019081526020016000206000015490506112c3828261136390919063ffffffff16565b600560008673ffffffffffffffffffffffffffffffffffffffff1673ffffffffffffffffffffffffffffffffffffffff1681526020019081526020016000206000018190555050505050565b60015481565b6000808314156113285760009050611347565b818302905081838281151561133957fe5b0414151561134357fe5b8090505b92915050565b6000818381151561135a57fe5b04905092915050565b6000818301905082811015151561137657fe5b80905092915050565b60806040519081016040528060608152602001606081526020016000151581526020016000151581525090565b828054600181600116156101000203166002900490600052602060002090601f016020900481019282601f106113ed57805160ff191683800117855561141b565b8280016001018555821561141b579182015b8281111561141a5782518255916020019190600101906113ff565b5b509050611428919061142c565b5090565b61144e91905b8082111561144a576000816000905550600101611432565b5090565b905600a165627a7a72305820ee2c81909cf40f3057dad7e5a11878663352d2cf7ec5f318760782dc9f01cc5b0029",
  "source": "pragma solidity ^0.4.25;\n\nimport \"../node_modules/openzeppelin-solidity/contracts/math/SafeMath.sol\";\n\ncontract FlightSuretyDatas {\n    using SafeMath for uint256;\n\n    /********************************************************************************************/\n    /*                                       DATA VARIABLES                                     */\n    /********************************************************************************************/\n\n    address private contractOwner;                                      // Account used to deploy contract\n    bool private operational = true;                                    // Blocks all state changes throughout the contract if false\n\n    \n    \n    /*===================================  Airlines Variables   =================================*/ \n    uint256 public airlineCount = 0;\n    uint256 public constant AirlineRegistrationFee = 10 ether;\n    \n    \n     struct airliner {\n      string companyName;\n      string IATA; //airline designators, sometimes called IATA reservation codes, are two-character codes assigned by the International Air Transport Association  \n      bool registered;\n      bool funded;\n      mapping(address => bool) delegator; //Participants of the elections process\n      }\n      mapping(address => airliner) private airlinerAddress;\n    \n    \n    \n\n    \n    /*=================================== End Airlines Variables    =================================*/ \n    \n    /*\n    struct passenger {\n      bool exist;\n      uint256 status;\n      bool add;\n      string IATA; //airline designators, sometimes called IATA reservation codes, are two-character codes assigned by the International Air Transport Association  \n      uint256 departure;\n      uint256 price;\n      mapping(address => bool) flightInsured;\n    }*/\n    \n    struct insurancesContract {\n      uint256 airlineRegistrationFee;\n      uint256 passengerFee;\n      \n    }\n    mapping(uint => insurancesContract) termsInsurance;\n    \n    struct InsuranceIndex {\n      uint256 passengerShare;\n      address passenger;\n    }\n    mapping(address => InsuranceIndex) insuranceIndex;\n    \n    struct InsuranceTreasury{\n      uint256 amount;    \t\n    }\n    mapping(address => InsuranceTreasury) insuranceTreasury;\n    \n    mapping(address => uint256) private credit;\n    mapping(address => bool) private authorizeCallers;\n    //mapping(bytes32 => clientFlights) private flights;\n    mapping(address => uint256) passengerAccount;\n    \n    \n    /********************************************************************************************/\n    /*                                       EVENT DEFINITIONS                                  */\n    /********************************************************************************************/\n\n\n    /**\n    * @dev Constructor\n    *      The deploying account becomes contractOwner\n    */\n    constructor\n                                (\n                                ) \n                                public \n    {\n        contractOwner = msg.sender;\n        \n        \n        insurancesContract memory Insurance;\n        Insurance.airlineRegistrationFee = 10 ether;\n        Insurance.passengerFee = 1 ether;\n        termsInsurance[1] = Insurance;\n    }\n\n    /********************************************************************************************/\n    /*                                       FUNCTION MODIFIERS                                 */\n    /********************************************************************************************/\n\n    // Modifiers help avoid duplication of code. They are typically used to validate something\n    // before a function is allowed to be executed.\n\n    /**\n    * @dev Modifier that requires the \"operational\" boolean variable to be \"true\"\n    *      This is used on all state changing functions to pause the contract in \n    *      the event there is an issue that needs to be fixed\n    */\n    modifier requireIsOperational() \n    {\n         \n        require(operational, \"Contract is currently not operational\");  \n        _;  // All modifiers require an \"_\" which indicates where the function body will be added\n    }\n\n    /**\n    * @dev Modifier that requires the \"ContractOwner\" account to be the function caller\n    */\n    modifier requireContractOwner()\n    {\n        require(msg.sender == contractOwner, \"Caller is not contract owner.\");\n        _;\n    }\n     modifier requireIsInsure(address airline, address passenger)\n    {\n        require(insuranceIndex[airline].passenger == passenger, \"Passenger is not insured.\");\n        _;\n    }\n     modifier requireIsRightCredited(address airline,uint256 amount)\n    {\n        require(insuranceIndex[airline].passengerShare.mul(3).div(2) == amount, \"Wrong credited amount.\");\n        _;\n    }\n     modifier requireIsAccountValide(address passenger,address airline)\n    {\n        require((passenger != address(0)) && (airline != address(0)), \"'accounts address must be  valid.\");\n        _;\n    }\n\n\n\n    /********************************************************************************************/\n    /*                                       UTILITY FUNCTIONS                                  */\n    /********************************************************************************************/\n\n    /**\n    * @dev Get operating status of contract\n    *\n    * @return A bool that is the current operating status\n    */      \n    function isOperational() \n                            public \n                            view \n                            returns(bool) \n    {\n        return operational;\n    }\n\n\n    /**\n    * @dev Sets contract operations on/off\n    *\n    * When operational mode is disabled, all write transactions except for this one will fail\n    */    \n    function setOperatingStatus\n                            (\n                                bool mode\n                            ) \n                            external\n                            requireContractOwner \n    {\n        operational = mode;\n    }\n\n    /********************************************************************************************/\n    /*                                     SMART CONTRACT FUNCTIONS                             */\n    /********************************************************************************************/\n    \n    \n   /*===================================  Airlines functions   =================================*/ \n\n   /**\n    * @dev Add an airline to the registration queue\n    *      Can only be called from FlightSuretyApp contract\n    *\n    */   \n     \n    function registerAirline\n                            (\n                            string companyName, string IATA, bool registered, bool funded, address delegator                            \n                            )\n                            external                            \n    {\n    \n        airliner memory addAirline;\n        addAirline.companyName = companyName;\n        addAirline.IATA = IATA;\n        addAirline.registered = registered;\n        addAirline.funded = funded; //===> false not already participate to the seed funding \n        airlinerAddress[delegator] = addAirline;\n        airlineCount = airlineCount.add(1);\n\n    }\n    \n    //******************  transactions tools ******************\n    function sendFund\n    \t\t     (\n    \t\t     address Owner, uint256 amount\n    \t\t     )\n    \t\t     external\n    {\n        Owner.transfer(amount);\n        \n        airlinerAddress[Owner].funded = true;\n        \n    }\n    /*function getAirlineFunding\n    \t\t\t      (\n    \t\t\t      address airline\n    \t\t\t      ) \n    \t\t\t      external returns(uint256)\n    {\n        return fund[airline].amount;\n    }*/\n    \n    \n   // ******************* setter/getter function for multiCalls *******************\n   /*\n   function setMultiCalls\n   \t\t\t(\n   \t\t\taddress account\n   \t\t\t) \n   \t\t\tprivate \n   {\n        multiCalls.push(account);\n   }\n    \n   function getmultiCallsLength\n   \t\t\t\t(\n   \t\t\t\t) \n   \t\t\t\texternal \n   \t\t\t\trequireIsOperational \n   \t\t\t\treturns(uint)\n    {\n        return multiCalls.length;\n    }\n    */\n    \n    // ******************* setter/getter function for insurancesContract struct *******************\n    \n    function getAirlineRegistrationFee\n    \t\t\t\t\t(\n    \t\t\t\t\t)\n    \t\t\t\t\texternal \n    \t\t\t\t\trequireIsOperational \n    \t\t\t\t\treturns(uint256)\n    {\n        \n        return termsInsurance[1].airlineRegistrationFee;\n    }\n    \n    \n    // ******************* setter/getter function for airliner struct *******************\n    \n      function getAirlineRegisterStatus\n      \t\t\t\t\t(\n      \t\t\t\t\taddress account\n      \t\t\t\t\t) \n      \t\t\t\t\texternal \n      \t\t\t\t\trequireIsOperational \n      \t\t\t\t\treturns(bool)\n    {\n        return airlinerAddress[account].registered;\n    }\n\n   \n\n    \n    /*=================================== Insurance subscription =================================*/ \n    \n    function getAirlineFundingStatus\n      \t\t\t\t\t(\n      \t\t\t\t\taddress account\n      \t\t\t\t\t) \n      \t\t\t\t\texternal \n      \t\t\t\t\trequireIsOperational \n      \t\t\t\t\treturns(bool)\n    {\n        return airlinerAddress[account].funded;\n    }\n\n    function _setInsurance\n    \t\t\t(\n    \t\t\taddress airline, address passenger, uint256 share\n    \t\t\t) \n    \t\t\texternal \n    \t\t\trequireIsOperational\n    {\n        insuranceIndex[airline] = InsuranceIndex({\n            passengerShare: share,\n            passenger: passenger\n        });\n        uint256 getShare = insuranceTreasury[airline].amount;\n        insuranceTreasury[airline].amount = getShare.add(share);\n    }\n   \n    /**\n     *  @dev Credits payouts to insurees\n    */\n    function setCreditInsurance\n                                (\n                                    address airline,\n                                    address passenger,\n                                    uint256 amount\n                                )\n                                external\n                                requireIsOperational\n                                requireIsInsure(airline,passenger)\n\t\t\t\t requireIsRightCredited(airline,amount)\n\t\t\t\t //requireIsAccountValide\n\t\t\t\t\t\t\t      \n    {\n        // Amount to be credited\n        uint256 insureAmount =insuranceIndex[airline].passengerShare.mul(3).div(2);\n\n       \n        // Keep track of amount to be credited in passenger account\n        passengerAccount[passenger] = insureAmount;\n\n    }\n    function getInsuredIndexPassengers\n    \t\t\t\t\t(\n    \t\t\t\t\taddress airline\n    \t\t\t\t\t)\n    \t\t\t\t\t external \n    \t\t\t\t\t requireIsOperational  \n    \t\t\t\t\t returns(address, uint256)\n    {\n        return (insuranceIndex[airline].passenger,insuranceIndex[airline].passengerShare);\n    }\n    \n    function _withdraw\n                        (\n                            address passenger\n                        )\n                        external\n                        \n                        requireIsOperational\n                        returns(uint256)\n    {\n        uint256 withdraw = passengerAccount[passenger];\n        delete passengerAccount[passenger];\n        return withdraw;\n\n\n    }\n    \n   /**\n    * @dev Buy insurance for a flight\n    *\n    */   \n    function buy\n                            (                             \n                            )\n                            external\n                            payable\n    {\n\n    }\n\n    \n    \n    \n\n    /**\n     *  @dev Transfers eligible payout funds to insuree\n     *\n    */\n    function pay\n                            (\n                            )\n                            external\n                            pure\n    {\n    }\n\n   \n\n    function getFlightKey\n                        (\n                            address airline,\n                            string memory flight,\n                            uint256 timestamp\n                        )\n                        pure\n                        internal\n                        returns(bytes32) \n    {\n        return keccak256(abi.encodePacked(airline, flight, timestamp));\n    }\n   \n\n    /**\n    * @dev Fallback function for funding smart contract.\n    *\n    */\n    function() \n                            external \n                            payable \n    {\n       // sendFund();\n    }\n\n\n}\n\n",
  "sourcePath": "/home/gaethan/Bureau/UDACITY_Blockchain/FlightSurety/contracts/FlightSuretyData.sol",
  "compiler": {
    "name": "solc",
    "version": "0.4.25+commit.59dbf8f1.Emscripten.clang"
  },
  "schemaVersion": "3.3.2",
  "updatedAt": "2021-01-21T12:48:13.637Z",
  "networkType": "ethereum",
  "devdoc": {
    "methods": {
      "buy()": {
        "details": "Buy insurance for a flight    "
      },
      "isOperational()": {
        "details": "Get operating status of contract",
        "return": "A bool that is the current operating status"
      },
      "pay()": {
        "details": "Transfers eligible payout funds to insuree    "
      },
      "registerAirline(string,string,bool,bool,address)": {
        "details": "Add an airline to the registration queue     Can only be called from FlightSuretyApp contract    "
      },
      "setCreditInsurance(address,address,uint256)": {
        "details": "Credits payouts to insurees"
      },
      "setOperatingStatus(bool)": {
        "details": "Sets contract operations on/off    * When operational mode is disabled, all write transactions except for this one will fail"
      }
    }
  },
  "userdoc": {
    "methods": {}
  }
}