{
  "contractName": "FlightSuretyApp",
  "abi": [
    {
      "constant": true,
      "inputs": [],
      "name": "REGISTRATION_FEE",
      "outputs": [
        {
          "name": "",
          "type": "uint256"
        }
      ],
      "payable": false,
      "stateMutability": "view",
      "type": "function"
    },
    {
      "inputs": [
        {
          "name": "flightSuretyDataContract",
          "type": "address"
        }
      ],
      "payable": false,
      "stateMutability": "nonpayable",
      "type": "constructor"
    },
    {
      "anonymous": false,
      "inputs": [
        {
          "indexed": false,
          "name": "account",
          "type": "address"
        }
      ],
      "name": "AirlineRegistered",
      "type": "event"
    },
    {
      "anonymous": false,
      "inputs": [
        {
          "indexed": false,
          "name": "account",
          "type": "address"
        },
        {
          "indexed": false,
          "name": "score",
          "type": "uint256"
        }
      ],
      "name": "AirlineNotRegistered",
      "type": "event"
    },
    {
      "anonymous": false,
      "inputs": [
        {
          "indexed": false,
          "name": "funder",
          "type": "address"
        },
        {
          "indexed": false,
          "name": "seedFee",
          "type": "uint256"
        }
      ],
      "name": "FundedSeed",
      "type": "event"
    },
    {
      "anonymous": false,
      "inputs": [
        {
          "indexed": false,
          "name": "airline",
          "type": "address"
        },
        {
          "indexed": false,
          "name": "sender",
          "type": "address"
        },
        {
          "indexed": false,
          "name": "share",
          "type": "uint256"
        }
      ],
      "name": "InsuranceSubscribed",
      "type": "event"
    },
    {
      "anonymous": false,
      "inputs": [
        {
          "indexed": false,
          "name": "airline",
          "type": "address"
        },
        {
          "indexed": false,
          "name": "passenger",
          "type": "address"
        },
        {
          "indexed": false,
          "name": "credit",
          "type": "uint256"
        }
      ],
      "name": "passengerCreditProccesed",
      "type": "event"
    },
    {
      "anonymous": false,
      "inputs": [
        {
          "indexed": false,
          "name": "sender",
          "type": "address"
        },
        {
          "indexed": false,
          "name": "value",
          "type": "uint256"
        }
      ],
      "name": "Withdraw",
      "type": "event"
    },
    {
      "anonymous": false,
      "inputs": [
        {
          "indexed": false,
          "name": "airline",
          "type": "address"
        },
        {
          "indexed": false,
          "name": "flight",
          "type": "string"
        },
        {
          "indexed": false,
          "name": "timestamp",
          "type": "uint256"
        },
        {
          "indexed": false,
          "name": "status",
          "type": "uint8"
        }
      ],
      "name": "FlightStatusInfo",
      "type": "event"
    },
    {
      "anonymous": false,
      "inputs": [
        {
          "indexed": false,
          "name": "airline",
          "type": "address"
        },
        {
          "indexed": false,
          "name": "flight",
          "type": "string"
        },
        {
          "indexed": false,
          "name": "timestamp",
          "type": "uint256"
        },
        {
          "indexed": false,
          "name": "status",
          "type": "uint8"
        }
      ],
      "name": "OracleReport",
      "type": "event"
    },
    {
      "anonymous": false,
      "inputs": [
        {
          "indexed": false,
          "name": "index",
          "type": "uint8"
        },
        {
          "indexed": false,
          "name": "airline",
          "type": "address"
        },
        {
          "indexed": false,
          "name": "flight",
          "type": "string"
        },
        {
          "indexed": false,
          "name": "timestamp",
          "type": "uint256"
        }
      ],
      "name": "OracleRequest",
      "type": "event"
    },
    {
      "constant": true,
      "inputs": [],
      "name": "isOperational",
      "outputs": [
        {
          "name": "",
          "type": "bool"
        }
      ],
      "payable": false,
      "stateMutability": "pure",
      "type": "function"
    },
    {
      "constant": false,
      "inputs": [
        {
          "name": "companyName",
          "type": "string"
        },
        {
          "name": "IATA",
          "type": "string"
        },
        {
          "name": "registered",
          "type": "bool"
        },
        {
          "name": "airline",
          "type": "address"
        }
      ],
      "name": "MultiPartyRegisterAirline",
      "outputs": [
        {
          "name": "",
          "type": "bool"
        }
      ],
      "payable": false,
      "stateMutability": "nonpayable",
      "type": "function"
    },
    {
      "constant": false,
      "inputs": [],
      "name": "seedFunding",
      "outputs": [],
      "payable": true,
      "stateMutability": "payable",
      "type": "function"
    },
    {
      "constant": false,
      "inputs": [
        {
          "name": "airline",
          "type": "address"
        }
      ],
      "name": "setInsurance",
      "outputs": [],
      "payable": true,
      "stateMutability": "payable",
      "type": "function"
    },
    {
      "constant": false,
      "inputs": [],
      "name": "withdraw",
      "outputs": [],
      "payable": false,
      "stateMutability": "nonpayable",
      "type": "function"
    },
    {
      "constant": false,
      "inputs": [],
      "name": "getAirlinesInfo",
      "outputs": [
        {
          "name": "",
          "type": "string"
        },
        {
          "name": "",
          "type": "string"
        }
      ],
      "payable": false,
      "stateMutability": "nonpayable",
      "type": "function"
    },
    {
      "constant": false,
      "inputs": [
        {
          "name": "airline",
          "type": "address"
        },
        {
          "name": "flight",
          "type": "string"
        },
        {
          "name": "timestamp",
          "type": "uint256"
        }
      ],
      "name": "fetchFlightStatus",
      "outputs": [],
      "payable": false,
      "stateMutability": "nonpayable",
      "type": "function"
    },
    {
      "constant": false,
      "inputs": [],
      "name": "registerOracle",
      "outputs": [],
      "payable": true,
      "stateMutability": "payable",
      "type": "function"
    },
    {
      "constant": true,
      "inputs": [],
      "name": "getMyIndexes",
      "outputs": [
        {
          "name": "",
          "type": "uint8[3]"
        }
      ],
      "payable": false,
      "stateMutability": "view",
      "type": "function"
    },
    {
      "constant": false,
      "inputs": [
        {
          "name": "index",
          "type": "uint8"
        },
        {
          "name": "airline",
          "type": "address"
        },
        {
          "name": "flight",
          "type": "string"
        },
        {
          "name": "timestamp",
          "type": "uint256"
        },
        {
          "name": "statusCode",
          "type": "uint8"
        }
      ],
      "name": "submitOracleResponse",
      "outputs": [],
      "payable": false,
      "stateMutability": "nonpayable",
      "type": "function"
    }
  ],
  "bytecode": "0x608060405260016000806101000a81548160ff021916908315150217905550600180556000600260006101000a81548160ff0219169083151502179055506000600460006101000a81548160ff021916908360ff16021790555034801561006557600080fd5b506040516020806131078339810180604052810190808051906020019092919050505033600260016101000a81548173ffffffffffffffffffffffffffffffffffffffff021916908373ffffffffffffffffffffffffffffffffffffffff16021790555080600060016101000a81548173ffffffffffffffffffffffffffffffffffffffff021916908373ffffffffffffffffffffffffffffffffffffffff160217905550600060019054906101000a900473ffffffffffffffffffffffffffffffffffffffff1673ffffffffffffffffffffffffffffffffffffffff1663f1926754600180730c0b6847afd923c7c39ae185cef946318b82083a6040518463ffffffff167c010000000000000000000000000000000000000000000000000000000002815260040180806020018060200186151515158152602001851515151581526020018473ffffffffffffffffffffffffffffffffffffffff1673ffffffffffffffffffffffffffffffffffffffff168152602001838103835260038152602001807f5457410000000000000000000000000000000000000000000000000000000000815250602001838103825260058152602001807f414d37353700000000000000000000000000000000000000000000000000000081525060200195505050505050600060405180830381600087803b15801561026657600080fd5b505af115801561027a573d6000803e3d6000fd5b505050507f89a6354fb229eda6cbc28306798727b4d524818d2c375220bc3f360f24cffaca600260019054906101000a900473ffffffffffffffffffffffffffffffffffffffff16604051808273ffffffffffffffffffffffffffffffffffffffff1673ffffffffffffffffffffffffffffffffffffffff16815260200191505060405180910390a150612df4806103136000396000f3006080604052600436106100af576000357c0100000000000000000000000000000000000000000000000000000000900463ffffffff1680630b86de58146100b4578063339d25901461014b5780633ccfd60b14610155578063575f07d21461016c5780635f1cc0e61461026857806364b4f751146102bb5780636cd7751f146102e657806393f685371461031c578063c10f270014610326578063cd905dff146103a5578063f83f11c0146103d4575b600080fd5b3480156100c057600080fd5b50610131600480360381019080803590602001908201803590602001919091929391929390803590602001908201803590602001919091929391929390803515159060200190929190803573ffffffffffffffffffffffffffffffffffffffff169060200190929190505050610439565b604051808215151515815260200191505060405180910390f35b610153610d2e565b005b34801561016157600080fd5b5061016a610e56565b005b34801561017857600080fd5b506101816110b0565b604051808060200180602001838103835285818151815260200191508051906020019080838360005b838110156101c55780820151818401526020810190506101aa565b50505050905090810190601f1680156101f25780820380516001836020036101000a031916815260200191505b50838103825284818151815260200191508051906020019080838360005b8381101561022b578082015181840152602081019050610210565b50505050905090810190601f1680156102585780820380516001836020036101000a031916815260200191505b5094505050505060405180910390f35b34801561027457600080fd5b5061027d6112d9565b6040518082600360200280838360005b838110156102a857808201518184015260208101905061028d565b5050505090500191505060405180910390f35b3480156102c757600080fd5b506102d061144e565b6040518082815260200191505060405180910390f35b61031a600480360381019080803573ffffffffffffffffffffffffffffffffffffffff16906020019092919050505061145a565b005b610324611768565b005b34801561033257600080fd5b506103a3600480360381019080803560ff169060200190929190803573ffffffffffffffffffffffffffffffffffffffff16906020019092919080359060200190820180359060200191909192939192939080359060200190929190803560ff169060200190929190505050611c47565b005b3480156103b157600080fd5b506103ba612260565b604051808215151515815260200191505060405180910390f35b3480156103e057600080fd5b50610437600480360381019080803573ffffffffffffffffffffffffffffffffffffffff16906020019092919080359060200190820180359060200191909192939192939080359060200190929190505050612269565b005b6000806000809054906101000a900460ff1615156104e5576040517f08c379a00000000000000000000000000000000000000000000000000000000081526004018080602001828103825260258152602001807f436f6e74726163742069732063757272656e746c79206e6f74206f706572617481526020017f696f6e616c00000000000000000000000000000000000000000000000000000081525060400191505060405180910390fd5b82600260019054906101000a900473ffffffffffffffffffffffffffffffffffffffff1673ffffffffffffffffffffffffffffffffffffffff168173ffffffffffffffffffffffffffffffffffffffff16141515156105d2576040517f08c379a00000000000000000000000000000000000000000000000000000000081526004018080602001828103825260228152602001807f276163636f756e7427206d75737420626520612076616c69642061646472657381526020017f732e00000000000000000000000000000000000000000000000000000000000081525060400191505060405180910390fd5b83600060019054906101000a900473ffffffffffffffffffffffffffffffffffffffff1673ffffffffffffffffffffffffffffffffffffffff16636a080361826040518263ffffffff167c0100000000000000000000000000000000000000000000000000000000028152600401808273ffffffffffffffffffffffffffffffffffffffff1673ffffffffffffffffffffffffffffffffffffffff168152602001915050602060405180830381600087803b15801561069057600080fd5b505af11580156106a4573d6000803e3d6000fd5b505050506040513d60208110156106ba57600080fd5b8101908080519060200190929190505050151515610740576040517f08c379a00000000000000000000000000000000000000000000000000000000081526004018080602001828103825260128152602001807f416c72656164792072656769737465726564000000000000000000000000000081525060200191505060405180910390fd5b600060019054906101000a900473ffffffffffffffffffffffffffffffffffffffff1673ffffffffffffffffffffffffffffffffffffffff16631463ba12336040518263ffffffff167c0100000000000000000000000000000000000000000000000000000000028152600401808273ffffffffffffffffffffffffffffffffffffffff1673ffffffffffffffffffffffffffffffffffffffff168152602001915050602060405180830381600087803b1580156107fd57600080fd5b505af1158015610811573d6000803e3d6000fd5b505050506040513d602081101561082757600080fd5b810190808051906020019092919050505015156108f8576040517f08c379a00000000000000000000000000000000000000000000000000000000081526004018080602001828103825260518152602001807f546f20706172746963697061746520746f20746865207265676973747261746981526020017f6f6e20617070726f76616c2c20796f75204d7573742066756e6420746865207381526020017f6565642070617274696369706174696f6e00000000000000000000000000000081525060600191505060405180910390fd5b6004424460405160200180838152602001828152602001925050506040516020818303038152906040526040518082805190602001908083835b6020831015156109575780518252602082019150602081019050602083039250610932565b6001836020036101000a03801982511681845116808217855250505050505090500191505060405180910390206001900481151561099157fe5b06925060046001541015610b4d57600060019054906101000a900473ffffffffffffffffffffffffffffffffffffffff1673ffffffffffffffffffffffffffffffffffffffff1663f19267548b8b8b8b8b60008c6040518863ffffffff167c010000000000000000000000000000000000000000000000000000000002815260040180806020018060200186151515158152602001851515151581526020018473ffffffffffffffffffffffffffffffffffffffff1673ffffffffffffffffffffffffffffffffffffffff16815260200183810383528a8a828181526020019250808284378201915050838103825288888281815260200192508082843782019150509950505050505050505050600060405180830381600087803b158015610ab957600080fd5b505af1158015610acd573d6000803e3d6000fd5b505050507f89a6354fb229eda6cbc28306798727b4d524818d2c375220bc3f360f24cffaca85604051808273ffffffffffffffffffffffffffffffffffffffff1673ffffffffffffffffffffffffffffffffffffffff16815260200191505060405180910390a16001806000828254019250508190555060019350610d21565b610b6360026001546124d390919063ffffffff16565b8360ff16101515610d1c57600060019054906101000a900473ffffffffffffffffffffffffffffffffffffffff1673ffffffffffffffffffffffffffffffffffffffff1663f19267548b8b8b8b8b60008c6040518863ffffffff167c010000000000000000000000000000000000000000000000000000000002815260040180806020018060200186151515158152602001851515151581526020018473ffffffffffffffffffffffffffffffffffffffff1673ffffffffffffffffffffffffffffffffffffffff16815260200183810383528a8a828181526020019250808284378201915050838103825288888281815260200192508082843782019150509950505050505050505050600060405180830381600087803b158015610c8857600080fd5b505af1158015610c9c573d6000803e3d6000fd5b505050507f89a6354fb229eda6cbc28306798727b4d524818d2c375220bc3f360f24cffaca85604051808273ffffffffffffffffffffffffffffffffffffffff1673ffffffffffffffffffffffffffffffffffffffff16815260200191505060405180910390a16001806000828254019250508190555060019350610d21565b600093505b5050509695505050505050565b610d36612cdb565b670de0b6b3a76400003410151515610db6576040517f08c379a000000000000000000000000000000000000000000000000000000000815260040180806020018281038252601c8152602001807f526567697374726174696f6e206665652069732072657175697265640000000081525060200191505060405180910390fd5b610dbf336124e9565b9050604080519081016040528060011515815260200182815250600560003373ffffffffffffffffffffffffffffffffffffffff1673ffffffffffffffffffffffffffffffffffffffff16815260200190815260200160002060008201518160000160006101000a81548160ff021916908315150217905550602082015181600101906003610e4f929190612cfe565b5090505050565b60008060009054906101000a900460ff161515610f01576040517f08c379a00000000000000000000000000000000000000000000000000000000081526004018080602001828103825260258152602001807f436f6e74726163742069732063757272656e746c79206e6f74206f706572617481526020017f696f6e616c00000000000000000000000000000000000000000000000000000081525060400191505060405180910390fd5b600060019054906101000a900473ffffffffffffffffffffffffffffffffffffffff1673ffffffffffffffffffffffffffffffffffffffff1663da1aaa59336040518263ffffffff167c0100000000000000000000000000000000000000000000000000000000028152600401808273ffffffffffffffffffffffffffffffffffffffff1673ffffffffffffffffffffffffffffffffffffffff168152602001915050602060405180830381600087803b158015610fbe57600080fd5b505af1158015610fd2573d6000803e3d6000fd5b505050506040513d6020811015610fe857600080fd5b810190808051906020019092919050505090503373ffffffffffffffffffffffffffffffffffffffff166108fc829081150290604051600060405180830381858888f19350505050158015611041573d6000803e3d6000fd5b507f884edad9ce6fa2440d8a54cc123490eb96d2768479d49ff9c7366125a94243643382604051808373ffffffffffffffffffffffffffffffffffffffff1673ffffffffffffffffffffffffffffffffffffffff1681526020018281526020019250505060405180910390a150565b6060806060806000809054906101000a900460ff16151561115f576040517f08c379a00000000000000000000000000000000000000000000000000000000081526004018080602001828103825260258152602001807f436f6e74726163742069732063757272656e746c79206e6f74206f706572617481526020017f696f6e616c00000000000000000000000000000000000000000000000000000081525060400191505060405180910390fd5b600060019054906101000a900473ffffffffffffffffffffffffffffffffffffffff1673ffffffffffffffffffffffffffffffffffffffff166324ec19f96040518163ffffffff167c0100000000000000000000000000000000000000000000000000000000028152600401600060405180830381600087803b1580156111e557600080fd5b505af11580156111f9573d6000803e3d6000fd5b505050506040513d6000823e3d601f19601f82011682018060405250604081101561122357600080fd5b81019080805164010000000081111561123b57600080fd5b8281019050602081018481111561125157600080fd5b815185600182028301116401000000008211171561126e57600080fd5b5050929190602001805164010000000081111561128a57600080fd5b828101905060208101848111156112a057600080fd5b81518560018202830111640100000000821117156112bd57600080fd5b5050929190505050809250819350505081819350935050509091565b6112e1612cdb565b600560003373ffffffffffffffffffffffffffffffffffffffff1673ffffffffffffffffffffffffffffffffffffffff16815260200190815260200160002060000160009054906101000a900460ff1615156113a5576040517f08c379a000000000000000000000000000000000000000000000000000000000815260040180806020018281038252601b8152602001807f4e6f74207265676973746572656420617320616e206f7261636c65000000000081525060200191505060405180910390fd5b600560003373ffffffffffffffffffffffffffffffffffffffff1673ffffffffffffffffffffffffffffffffffffffff168152602001908152602001600020600101600380602002604051908101604052809291908260038015611444576020028201916000905b82829054906101000a900460ff1660ff168152602001906001019060208260000104928301926001038202915080841161140d5790505b5050505050905090565b670de0b6b3a764000081565b6000809054906101000a900460ff161515611503576040517f08c379a00000000000000000000000000000000000000000000000000000000081526004018080602001828103825260258152602001807f436f6e74726163742069732063757272656e746c79206e6f74206f706572617481526020017f696f6e616c00000000000000000000000000000000000000000000000000000081525060400191505060405180910390fd5b60003411801561151b5750670de0b6b3a76400003411155b15156115b5576040517f08c379a000000000000000000000000000000000000000000000000000000000815260040180806020018281038252602d8152602001807f496e737572616e63652076616c7565206d75737420626520696e20746865207281526020017f616e6765206f66205d302c315d0000000000000000000000000000000000000081525060400191505060405180910390fd5b600060019054906101000a900473ffffffffffffffffffffffffffffffffffffffff1673ffffffffffffffffffffffffffffffffffffffff1663f502cca38233346040518463ffffffff167c0100000000000000000000000000000000000000000000000000000000028152600401808473ffffffffffffffffffffffffffffffffffffffff1673ffffffffffffffffffffffffffffffffffffffff1681526020018373ffffffffffffffffffffffffffffffffffffffff1673ffffffffffffffffffffffffffffffffffffffff1681526020018281526020019350505050600060405180830381600087803b1580156116ae57600080fd5b505af11580156116c2573d6000803e3d6000fd5b505050507f6150a7da9bbbaefab78e0d0200f33d7201a1d7c7f61428aca32b57af3293e80b813334604051808473ffffffffffffffffffffffffffffffffffffffff1673ffffffffffffffffffffffffffffffffffffffff1681526020018373ffffffffffffffffffffffffffffffffffffffff1673ffffffffffffffffffffffffffffffffffffffff168152602001828152602001935050505060405180910390a150565b6000809054906101000a900460ff161515611811576040517f08c379a00000000000000000000000000000000000000000000000000000000081526004018080602001828103825260258152602001807f436f6e74726163742069732063757272656e746c79206e6f74206f706572617481526020017f696f6e616c00000000000000000000000000000000000000000000000000000081525060400191505060405180910390fd5b600060019054906101000a900473ffffffffffffffffffffffffffffffffffffffff1673ffffffffffffffffffffffffffffffffffffffff1663b6a226816040518163ffffffff167c0100000000000000000000000000000000000000000000000000000000028152600401602060405180830381600087803b15801561189757600080fd5b505af11580156118ab573d6000803e3d6000fd5b505050506040513d60208110156118c157600080fd5b81019080805190602001909291905050503414151561196e576040517f08c379a00000000000000000000000000000000000000000000000000000000081526004018080602001828103825260308152602001807f74686520736565642066656573206973206e6f742072696768742072652d636881526020017f65636b2074686520636f6e74726163740000000000000000000000000000000081525060400191505060405180910390fd5b600060019054906101000a900473ffffffffffffffffffffffffffffffffffffffff1673ffffffffffffffffffffffffffffffffffffffff16631463ba12336040518263ffffffff167c0100000000000000000000000000000000000000000000000000000000028152600401808273ffffffffffffffffffffffffffffffffffffffff1673ffffffffffffffffffffffffffffffffffffffff168152602001915050602060405180830381600087803b158015611a2b57600080fd5b505af1158015611a3f573d6000803e3d6000fd5b505050506040513d6020811015611a5557600080fd5b8101908080519060200190929190505050151515611adb576040517f08c379a00000000000000000000000000000000000000000000000000000000081526004018080602001828103825260188152602001807f4169726c696e65277320616c72656164792066756e646564000000000000000081525060200191505060405180910390fd5b600060019054906101000a900473ffffffffffffffffffffffffffffffffffffffff1673ffffffffffffffffffffffffffffffffffffffff16634b569450600260019054906101000a900473ffffffffffffffffffffffffffffffffffffffff16346040518363ffffffff167c0100000000000000000000000000000000000000000000000000000000028152600401808373ffffffffffffffffffffffffffffffffffffffff1673ffffffffffffffffffffffffffffffffffffffff16815260200182815260200192505050600060405180830381600087803b158015611bc257600080fd5b505af1158015611bd6573d6000803e3d6000fd5b505050507ff5ca45ef937c5637fbb1cd39743ed35af5d91acf39ed3270d72e10652d9e57223334604051808373ffffffffffffffffffffffffffffffffffffffff1673ffffffffffffffffffffffffffffffffffffffff1681526020018281526020019250505060405180910390a1565b60008660ff16600560003373ffffffffffffffffffffffffffffffffffffffff1673ffffffffffffffffffffffffffffffffffffffff1681526020019081526020016000206001016000600381101515611c9d57fe5b602091828204019190069054906101000a900460ff1660ff161480611d2c57508660ff16600560003373ffffffffffffffffffffffffffffffffffffffff1673ffffffffffffffffffffffffffffffffffffffff1681526020019081526020016000206001016001600381101515611d1157fe5b602091828204019190069054906101000a900460ff1660ff16145b80611da157508660ff16600560003373ffffffffffffffffffffffffffffffffffffffff1673ffffffffffffffffffffffffffffffffffffffff1681526020019081526020016000206001016002600381101515611d8657fe5b602091828204019190069054906101000a900460ff1660ff16145b1515611e3b576040517f08c379a00000000000000000000000000000000000000000000000000000000081526004018080602001828103825260238152602001807f496e64657820646f6573206e6f74206d61746368206f7261636c65207265717581526020017f657374000000000000000000000000000000000000000000000000000000000081525060400191505060405180910390fd5b8686868686604051602001808660ff1660ff167f01000000000000000000000000000000000000000000000000000000000000000281526001018573ffffffffffffffffffffffffffffffffffffffff1673ffffffffffffffffffffffffffffffffffffffff166c010000000000000000000000000281526014018484808284378201915050828152602001955050505050506040516020818303038152906040526040518082805190602001908083835b602083101515611f125780518252602082019150602081019050602083039250611eed565b6001836020036101000a0380198251168184511680821785525050505050509050019150506040518091039020905060066000826000191660001916815260200190815260200160002060000160149054906101000a900460ff161515612007576040517f08c379a000000000000000000000000000000000000000000000000000000000815260040180806020018281038252602f8152602001807f466c69676874206f722074696d657374616d7020646f206e6f74206d6174636881526020017f206f7261636c652072657175657374000000000000000000000000000000000081525060400191505060405180910390fd5b60066000826000191660001916815260200190815260200160002060010160008360ff1660ff1681526020019081526020016000203390806001815401808255809150509060018203906000526020600020016000909192909190916101000a81548173ffffffffffffffffffffffffffffffffffffffff021916908373ffffffffffffffffffffffffffffffffffffffff160217905550507f43c853095c2752648493c88b4baac4d580d2594ffb00c6f1d4242d844514f7838686868686604051808673ffffffffffffffffffffffffffffffffffffffff1673ffffffffffffffffffffffffffffffffffffffff168152602001806020018481526020018360ff1660ff16815260200182810382528686828181526020019250808284378201915050965050505050505060405180910390a1600360066000836000191660001916815260200190815260200160002060010160008460ff1660ff16815260200190815260200160002080549050101515612257577fe23f5229de535c091e3b7bec2665f5d698192d3b31393066e8987b7a05076b6c8686868686604051808673ffffffffffffffffffffffffffffffffffffffff1673ffffffffffffffffffffffffffffffffffffffff168152602001806020018481526020018360ff1660ff16815260200182810382528686828181526020019250808284378201915050965050505050505060405180910390a16122568686868080601f016020809104026020016040519081016040528093929190818152602001838380828437820191505050505050858561268f565b5b50505050505050565b60006001905090565b60008061227533612b41565b91508186868686604051602001808660ff1660ff167f01000000000000000000000000000000000000000000000000000000000000000281526001018573ffffffffffffffffffffffffffffffffffffffff1673ffffffffffffffffffffffffffffffffffffffff166c010000000000000000000000000281526014018484808284378201915050828152602001955050505050506040516020818303038152906040526040518082805190602001908083835b60208310151561234e5780518252602082019150602081019050602083039250612329565b6001836020036101000a0380198251168184511680821785525050505050509050019150506040518091039020905060408051908101604052803373ffffffffffffffffffffffffffffffffffffffff1681526020016001151581525060066000836000191660001916815260200190815260200160002060008201518160000160006101000a81548173ffffffffffffffffffffffffffffffffffffffff021916908373ffffffffffffffffffffffffffffffffffffffff16021790555060208201518160000160146101000a81548160ff0219169083151502179055509050507f3ed01f2c3fc24c6b329d931e35b03e390d23497d22b3f90e15b600343e93df118287878787604051808660ff1660ff1681526020018573ffffffffffffffffffffffffffffffffffffffff1673ffffffffffffffffffffffffffffffffffffffff1681526020018060200183815260200182810382528585828181526020019250808284378201915050965050505050505060405180910390a1505050505050565b600081838115156124e057fe5b04905092915050565b6124f1612cdb565b6124f9612cdb565b61250283612b41565b81600060038110151561251157fe5b602002019060ff16908160ff168152505080600060038110151561253157fe5b602002015181600160038110151561254557fe5b602002019060ff16908160ff16815250505b80600060038110151561256657fe5b602002015160ff1681600160038110151561257d57fe5b602002015160ff1614156125b95761259483612b41565b8160016003811015156125a357fe5b602002019060ff16908160ff1681525050612557565b8060016003811015156125c857fe5b60200201518160026003811015156125dc57fe5b602002019060ff16908160ff16815250505b8060006003811015156125fd57fe5b602002015160ff1681600260038110151561261457fe5b602002015160ff161480612653575080600160038110151561263257fe5b602002015160ff1681600260038110151561264957fe5b602002015160ff16145b156126865761266183612b41565b81600260038110151561267057fe5b602002019060ff16908160ff16815250506125ee565b80915050919050565b60008060008060019054906101000a900473ffffffffffffffffffffffffffffffffffffffff1673ffffffffffffffffffffffffffffffffffffffff1663be2c9170886040518263ffffffff167c0100000000000000000000000000000000000000000000000000000000028152600401808273ffffffffffffffffffffffffffffffffffffffff1673ffffffffffffffffffffffffffffffffffffffff1681526020019150506040805180830381600087803b15801561274f57600080fd5b505af1158015612763573d6000803e3d6000fd5b505050506040513d604081101561277957600080fd5b8101908080519060200190929190805190602001909291905050508093508194505050600073ffffffffffffffffffffffffffffffffffffffff168373ffffffffffffffffffffffffffffffffffffffff16141580156128065750600073ffffffffffffffffffffffffffffffffffffffff168773ffffffffffffffffffffffffffffffffffffffff1614155b15156128a0576040517f08c379a000000000000000000000000000000000000000000000000000000000815260040180806020018281038252602b8152602001807f70617373656e6765722026206169726c696e652061646472657373206d75737481526020017f2062652076616c6964652e00000000000000000000000000000000000000000081525060400191505060405180910390fd5b60008211151561293e576040517f08c379a00000000000000000000000000000000000000000000000000000000081526004018080602001828103825260298152602001807f50617373656e67657220646964206e6f7420737562736372696220666f72206981526020017f6e737572616e63652e000000000000000000000000000000000000000000000081525060400191505060405180910390fd5b601460ff168460ff1614806129595750602860ff168460ff16145b15612b38576129856002612977600385612ca390919063ffffffff16565b6124d390919063ffffffff16565b9050600060019054906101000a900473ffffffffffffffffffffffffffffffffffffffff1673ffffffffffffffffffffffffffffffffffffffff16631d1e4f478885846040518463ffffffff167c0100000000000000000000000000000000000000000000000000000000028152600401808473ffffffffffffffffffffffffffffffffffffffff1673ffffffffffffffffffffffffffffffffffffffff1681526020018373ffffffffffffffffffffffffffffffffffffffff1673ffffffffffffffffffffffffffffffffffffffff1681526020018281526020019350505050600060405180830381600087803b158015612a8057600080fd5b505af1158015612a94573d6000803e3d6000fd5b505050507fe65205c6bd895ee4c0e4f95ba05b0d8b3a1d6d0f16df60dbeabe232596031430878483604051808473ffffffffffffffffffffffffffffffffffffffff1673ffffffffffffffffffffffffffffffffffffffff1681526020018373ffffffffffffffffffffffffffffffffffffffff1673ffffffffffffffffffffffffffffffffffffffff168152602001828152602001935050505060405180910390a15b50505050505050565b6000806000600a91508160ff166004600081819054906101000a900460ff168092919060010191906101000a81548160ff021916908360ff16021790555060ff16430340856040516020018083600019166000191681526020018273ffffffffffffffffffffffffffffffffffffffff1673ffffffffffffffffffffffffffffffffffffffff166c01000000000000000000000000028152601401925050506040516020818303038152906040526040518082805190602001908083835b602083101515612c245780518252602082019150602081019050602083039250612bff565b6001836020036101000a038019825116818451168082178552505050505050905001915050604051809103902060019004811515612c5e57fe5b06905060fa600460009054906101000a900460ff1660ff161115612c99576000600460006101000a81548160ff021916908360ff1602179055505b8092505050919050565b600080831415612cb65760009050612cd5565b8183029050818382811515612cc757fe5b04141515612cd157fe5b8090505b92915050565b606060405190810160405280600390602082028038833980820191505090505090565b826003601f01602090048101928215612d875791602002820160005b83821115612d5857835183826101000a81548160ff021916908360ff1602179055509260200192600101602081600001049283019260010302612d1a565b8015612d855782816101000a81549060ff0219169055600101602081600001049283019260010302612d58565b505b509050612d949190612d98565b5090565b612dc591905b80821115612dc157600081816101000a81549060ff021916905550600101612d9e565b5090565b905600a165627a7a723058207a3453462501442d6cfe10f6436ced03760480115d4070d355d9903d204a49750029",
  "source": "pragma solidity ^0.4.25;\n\n// It's important to avoid vulnerabilities due to numeric overflow bugs\n// OpenZeppelin's SafeMath library, when used correctly, protects agains such bugs\n// More info: https://www.nccgroup.trust/us/about-us/newsroom-and-events/blog/2018/november/smart-contract-insecurity-bad-arithmetic/\n\nimport \"../node_modules/openzeppelin-solidity/contracts/math/SafeMath.sol\";\nimport \"./FlightSuretyData.sol\";\n\n/************************************************** */\n/* FlightSurety Smart Contract                      */\n/************************************************** */\ncontract FlightSuretyApp   {\n    using SafeMath for uint256; // Allow SafeMath functions to be called for all uint256 types (similar to \"prototype\" in Javascript)\n    \n    /********************************************************************************************/\n    /*                                       DATA VARIABLES                                     */\n    /********************************************************************************************/\n    // Setup the multi sig constant\n    \n    bool private operational = true;\n    FlightSuretyData flightSuretyData;  \n    uint constant M = 4; // Treshold number in order to sign a tx\n    uint multiCalls = 1; // Start to one because one airline is directly registered\n    bool private vote_status = false; \n    \n    // Flight status codees\n    uint8 private constant STATUS_CODE_UNKNOWN = 0;\n    uint8 private constant STATUS_CODE_ON_TIME = 10;\n    uint8 private constant STATUS_CODE_LATE_AIRLINE = 20;\n    uint8 private constant STATUS_CODE_LATE_WEATHER = 30;\n    uint8 private constant STATUS_CODE_LATE_TECHNICAL = 40;\n    uint8 private constant STATUS_CODE_LATE_OTHER = 50;\n\n    address private contractOwner;          // Account used to deploy contract\n\n    struct Flight {\n        bool isRegistered;\n        uint8 statusCode;\n        uint256 updatedTimestamp;        \n        address airline;\n    }\n    mapping(bytes32 => Flight) private flights;\n\n     \n    /********************************************************************************************/\n    /*                                       EVENT DEFINITIONS                                  */\n    /********************************************************************************************/\n    \n    \n    \n   //Fire each time an airline is register  \n   event AirlineRegistered(address account);\n   //Fire each time an airline is refused   \n   event AirlineNotRegistered(address account, uint256 score);\n   //Fire each time an airline funded the seed fee   \n   event FundedSeed(address funder, uint256 seedFee);\n   //Fire each time a passenger subscribe to an insurance\n   event InsuranceSubscribed(address airline, address sender, uint256 share);\n   //\n   event passengerCreditProccesed(address airline, address passenger, uint256 credit);\n   event Withdraw(address sender ,uint256 value);\n    /********************************************************************************************/\n    /*                                       FUNCTION MODIFIERS                                 */\n    /********************************************************************************************/\n\n    // Modifiers help avoid duplication of code. They are typically used to validate something\n    // before a function is allowed to be executed.\n\n    /**\n    * @dev Modifier that requires the \"operational\" boolean variable to be \"true\"\n    *      This is used on all state changing functions to pause the contract in \n    *      the event there is an issue that needs to be fixed\n    */\n    \n    modifier requireisOperational() \n    {\n         // Modify to call data contract's status\n        require(operational, \"Contract is currently not operational\");  \n        _;  // All modifiers require an \"_\" which indicates where the function body will be added\n    }\n\n    /**\n    * @dev Modifier that requires the \"ContractOwner\" account to be the function caller\n    */\n    modifier requireContractOwner()\n    {\n        require(msg.sender == contractOwner, \"Caller is not contract owner\");\n        _;\n    }\n    /**\n    * @dev Modifier that requires the \"airline\" account to be a valid  caller\n    */\n    modifier requireisAirline(address airline)\n    {\n    \trequire(airline != contractOwner, \"'account' must be a valid address.\"); // check with address(0)\n    \t _;\n    }   \n    /**\n    * @dev Modifier that requires the \"airlineSender\" account to be not yet registered\n    */\n    modifier requireisNotRegistered(address airlineSender)\n    {\n        require(!flightSuretyData.getAirlineRegisterStatus(airlineSender), \"Already registered\");\n    \t _;\n    }\n    /**\n    * @dev Modifier that requires that the amount send must be right\n    */        \n    modifier requireIsCorrectAmount()\n    {\n        require(msg.value == flightSuretyData.getAirlineRegistrationFee(),\"the seed fees is not right re-check the contract\");\n    \t _;\n    }\n    /**\n    * @dev Modifier that requires the \"msg.send\" to be not yet funded\n    */\n    modifier requireIsNotFunded()\n    {\n        require(!flightSuretyData.getAirlineFundingStatus(msg.sender), \"Airline's already funded\");\n         _;\n    }\n    /**\n    * @dev Modifier that requires the \"msg.send\" to funded the seed participation\n    */\n    modifier requireIsFunded()\n    {\n        require(flightSuretyData.getAirlineFundingStatus(msg.sender), \"To participate to the registration approval, you Must fund the seed participation\");\n         _;\n    }\n    /**\n    * @dev Modifier that requires that insurance subscribtion amount be in the specified range\n    */\n    modifier requireAmountIsInRange()\n    {\n        require((msg.value > 0 ether) && (msg.value <= 1 ether), \"Insurance value must be in the range of ]0,1]\");\n         _;\n    }\n  \n    \n    \n    \n\n\n    \t\n    /********************************************************************************************/\n    /*                                       CONSTRUCTOR                                        */\n    /********************************************************************************************/\n\n    /**\n    * @dev Contract constructor\n    *\n    */\n    constructor\n                                (\n                                address flightSuretyDataContract\n                                ) \n                                public \n    {\n        contractOwner = msg.sender;\n        \n        flightSuretyData = FlightSuretyData(flightSuretyDataContract);\n        flightSuretyData.registerAirline(\"TWA\",\"AM757\",true,true,0x0C0b6847Afd923c7c39Ae185ceF946318b82083a);\n        \n        emit AirlineRegistered(contractOwner);\n    }\n\n    /********************************************************************************************/\n    /*                                       UTILITY FUNCTIONS                                  */\n    /********************************************************************************************/\n    \n   /**\n    * @dev check if the data contract is operational\n    *\n    */\n    function isOperational() \n                            public \n                            pure \n                            returns(bool) \n    {\n        return true;  // Modify to call data contract's status\n    }\n\n    /********************************************************************************************/\n    /*                                     SMART CONTRACT FUNCTIONS                             */\n    /********************************************************************************************/\n\n  \n   /**\n    * @dev Add an airline to the registration queue using multiparty consensus when airlines numbers is over 4\n    *\n    */   \n    function MultiPartyRegisterAirline\n                            (\n                            string companyName, string IATA, bool registered,address airline\n                            )\n                            external  \n                            requireisOperational\n                            requireisAirline(airline)\n                            requireisNotRegistered(airline)\n                            requireIsFunded\n                            \n                            returns(bool)                      \n    {\n        \n        uint8 randomVote = uint8(uint256(keccak256(abi.encodePacked(block.timestamp, block.difficulty)))%M); //To mimic the vote of Validators aka airlines already registered\n\n\t\n        //uint multicallLength = flightSuretyData.getMultiCallsLength();\n        \n\n        if (multiCalls < M){\n            // No round validator need to register  the airline\n            flightSuretyData.registerAirline(companyName, IATA, registered, false, airline);\n            emit AirlineRegistered(airline);\n            multiCalls +=1;\n            return(true);  // Registered without round vote\n        } else {\n                \n\n                if(randomVote >= multiCalls.div(2)){\n                    // Airline is accepted\n                    flightSuretyData.registerAirline(companyName, IATA, registered, false, airline);\n                    emit AirlineRegistered(airline);\n                    multiCalls +=1;\n                    return(true);             \n\n                }else{\n                    // Airline is refused\n                    return(false); \n                }           \n        }\n\n    }\n\n\n    /**\n    * @dev Initial funding for the insurance. Unless there are too many delayed flights\n    *      resulting in insurance payouts, the contract should be self-sustaining\n    *\n    */ \n\n    function seedFunding\n                (\n                )\n                public\n                payable\n                requireisOperational\n                requireIsCorrectAmount\n                requireIsNotFunded\n    {\n        flightSuretyData.sendFund(contractOwner, msg.value);\n        emit FundedSeed(msg.sender, msg.value);\n    }\n    \n    \n    \n     /**\n    * @dev Subscribe to an insurance for a flight\n    *\n    */   \n    function setInsurance\n                            (\n                                address airline\n                                \n                            )\n                            external\n                            payable\n                            requireisOperational\n                            requireAmountIsInRange\n                            \n    {\n              \n        flightSuretyData._setInsurance(airline, msg.sender, msg.value);\n\n        emit InsuranceSubscribed(airline, msg.sender, msg.value);\n\n    }\n    \n    /**\n     *  @dev Transfers eligible payout funds to insuree\n     *\n    */\n    function withdraw\n                            (\n                            )\n                            external\n                            requireisOperational\n                            \n    {\n        //require(flightSuretyData.getPassengerCredit(msg.sender) > 0, \"No balance to withdraw\");\n\n        uint256 withdraw_value = flightSuretyData._withdraw(msg.sender);\n        // Transfer credit to passenger wallet\n        msg.sender.transfer(withdraw_value);\n        \n        emit Withdraw(msg.sender,withdraw_value);\n\n\n    }\n        \n    function getAirlinesInfo\n    \t\t\t\t(\n    \t\t\t\t//address airline\n    \t\t\t\t)\n    \t\t\t\texternal\n    \t\t\t\trequireisOperational\n    \t\t\t\treturns ( string memory, string memory)\n\n    {\n    string memory companyName;\n    string memory IATA;\n    \n    (companyName,IATA) = flightSuretyData._getAirlinesInfo();\n    return (companyName, IATA);\n    }\n    \n    \n   /**\n    * @dev Called after oracle has updated flight status\n    *\n    */  \n    function processFlightStatus\n                                (\n                                    address airline,\n                                    string memory flight,\n                                    uint256 timestamp,\n                                    uint8 statusCode\n                                )\n                                internal\n                                \n    {\n         address passenger;\n         uint256 share;\n         (passenger,share) = flightSuretyData.getInsuredIndexPassengers(airline);\n\n         require((passenger != address(0)) && (airline != address(0)), \"passenger & airline address must be valide.\");\n         require(share > 0, \"Passenger did not subscrib for insurance.\");\n\n         // Only credit if flight delay is airline fault (airline late and late due to technical)\n         if((statusCode == STATUS_CODE_LATE_AIRLINE) || (statusCode == STATUS_CODE_LATE_TECHNICAL)){\n            uint256 credit = share.mul(3).div(2);\n\n            flightSuretyData.setCreditInsurance(airline, passenger, credit);\n            emit passengerCreditProccesed(airline, passenger, credit);\n            \n            \n        }\n    }\n    \n    \n\n   \n    \n    \n   /**\n    * @dev Generate a request for oracles to fetch flight information\n    *\n    */\n    function fetchFlightStatus\n                        (\n                            address airline,\n                            string flight,\n                            uint256 timestamp                            \n                        )\n                        external\n    {\n        uint8 index = getRandomIndex(msg.sender);\n\n        // Generate a unique key for storing the request\n        bytes32 key = keccak256(abi.encodePacked(index, airline, flight, timestamp));\n        oracleResponses[key] = ResponseInfo({\n                                                requester: msg.sender,\n                                                isOpen: true\n                                            });\n\n        emit OracleRequest(index, airline, flight, timestamp);\n    } \n\n\n// region ORACLE MANAGEMENT\n\n    // Incremented to add pseudo-randomness at various points\n    uint8 private nonce = 0;    \n\n    // Fee to be paid when registering oracle\n    uint256 public constant REGISTRATION_FEE = 1 ether;\n\n    // Number of oracles that must respond for valid status\n    uint256 private constant MIN_RESPONSES = 3;\n\n\n    struct Oracle {\n        bool isRegistered;\n        uint8[3] indexes;        \n    }\n\n    // Track all registered oracles\n    mapping(address => Oracle) private oracles;\n\n    // Model for responses from oracles\n    struct ResponseInfo {\n        address requester;                              // Account that requested status\n        bool isOpen;                                    // If open, oracle responses are accepted\n        mapping(uint8 => address[]) responses;          // Mapping key is the status code reported\n                                                        // This lets us group responses and identify\n                                                        // the response that majority of the oracles\n    }\n\n    // Track all oracle responses\n    // Key = hash(index, flight, timestamp)\n    mapping(bytes32 => ResponseInfo) private oracleResponses;\n\n    // Event fired each time an oracle submits a response\n    event FlightStatusInfo(address airline, string flight, uint256 timestamp, uint8 status);\n\n    event OracleReport(address airline, string flight, uint256 timestamp, uint8 status);\n\n    // Event fired when flight status request is submitted\n    // Oracles track this and if they have a matching index\n    // they fetch data and submit a response\n    event OracleRequest(uint8 index, address airline, string flight, uint256 timestamp);\n\n\n    // Register an oracle with the contract\n    function registerOracle\n                            (\n                            )\n                            external\n                            payable\n    {\n        // Require registration fee\n        require(msg.value >= REGISTRATION_FEE, \"Registration fee is required\");\n\n        uint8[3] memory indexes = generateIndexes(msg.sender);\n\n        oracles[msg.sender] = Oracle({\n                                        isRegistered: true,\n                                        indexes: indexes\n                                    });\n    }\n\n    function getMyIndexes\n                            (\n                            )\n                            view\n                            external\n                            returns(uint8[3])\n    {\n        require(oracles[msg.sender].isRegistered, \"Not registered as an oracle\");\n\n        return oracles[msg.sender].indexes;\n    }\n\n\n\n\n    // Called by oracle when a response is available to an outstanding request\n    // For the response to be accepted, there must be a pending request that is open\n    // and matches one of the three Indexes randomly assigned to the oracle at the\n    // time of registration (i.e. uninvited oracles are not welcome)\n    function submitOracleResponse\n                        (\n                            uint8 index,\n                            address airline,\n                            string flight,\n                            uint256 timestamp,\n                            uint8 statusCode\n                        )\n                        external\n    {\n        require((oracles[msg.sender].indexes[0] == index) || (oracles[msg.sender].indexes[1] == index) || (oracles[msg.sender].indexes[2] == index), \"Index does not match oracle request\");\n\n\n        bytes32 key = keccak256(abi.encodePacked(index, airline, flight, timestamp)); \n        require(oracleResponses[key].isOpen, \"Flight or timestamp do not match oracle request\");\n\n        oracleResponses[key].responses[statusCode].push(msg.sender);\n\n        // Information isn't considered verified until at least MIN_RESPONSES\n        // oracles respond with the *** same *** information\n        emit OracleReport(airline, flight, timestamp, statusCode);\n        if (oracleResponses[key].responses[statusCode].length >= MIN_RESPONSES) {\n\n            emit FlightStatusInfo(airline, flight, timestamp, statusCode);\n\n            // Handle flight status as appropriate\n            processFlightStatus(airline, flight, timestamp, statusCode);\n        }\n    }\n\n\n    function getFlightKey\n                        (\n                            address airline,\n                            string flight,\n                            uint256 timestamp\n                        )\n                        pure\n                        internal\n                        returns(bytes32) \n    {\n        return keccak256(abi.encodePacked(airline, flight, timestamp));\n    }\n\n    \t\t\t     \n\n    // Returns array of three non-duplicating integers from 0-9\n    function generateIndexes\n                            (                       \n                                address account         \n                            )\n                            internal\n                            returns(uint8[3])\n    {\n        uint8[3] memory indexes;\n        indexes[0] = getRandomIndex(account);\n        \n        indexes[1] = indexes[0];\n        while(indexes[1] == indexes[0]) {\n            indexes[1] = getRandomIndex(account);\n        }\n\n        indexes[2] = indexes[1];\n        while((indexes[2] == indexes[0]) || (indexes[2] == indexes[1])) {\n            indexes[2] = getRandomIndex(account);\n        }\n\n        return indexes;\n    }\n\n    // Returns array of three non-duplicating integers from 0-9\n    function getRandomIndex\n                            (\n                                address account\n                            )\n                            internal\n                            returns (uint8)\n    {\n        uint8 maxValue = 10;\n\n        // Pseudo random number...the incrementing nonce adds variation\n        uint8 random = uint8(uint256(keccak256(abi.encodePacked(blockhash(block.number - nonce++), account))) % maxValue);\n\n        if (nonce > 250) {\n            nonce = 0;  // Can only fetch blockhashes for last 256 blocks so we adapt\n        }\n\n        return random;\n    }\n\n// endregion\n\n\n}   \n\n\n    \n",
  "sourcePath": "/home/gaethan/Bureau/UDACITY_Blockchain/FlightSurety/contracts/FlightSuretyApp.sol",
  "compiler": {
    "name": "solc",
    "version": "0.4.25+commit.59dbf8f1.Emscripten.clang"
  },
  "schemaVersion": "3.3.2",
  "updatedAt": "2021-01-25T17:17:40.498Z",
  "networkType": "ethereum",
  "devdoc": {
    "methods": {
      "MultiPartyRegisterAirline(string,string,bool,address)": {
        "details": "Add an airline to the registration queue using multiparty consensus when airlines numbers is over 4    "
      },
      "fetchFlightStatus(address,string,uint256)": {
        "details": "Generate a request for oracles to fetch flight information    "
      },
      "isOperational()": {
        "details": "check if the data contract is operational    "
      },
      "seedFunding()": {
        "details": "Initial funding for the insurance. Unless there are too many delayed flights     resulting in insurance payouts, the contract should be self-sustaining    "
      },
      "setInsurance(address)": {
        "details": "Subscribe to an insurance for a flight    "
      },
      "withdraw()": {
        "details": "Transfers eligible payout funds to insuree    "
      }
    }
  },
  "userdoc": {
    "methods": {}
  }
}